{
  "contractName": "FidoMeta",
  "abi": [
    {
      "inputs": [
        {
          "internalType": "uint256",
          "name": "amount",
          "type": "uint256"
        },
        {
          "internalType": "uint256",
          "name": "cap_",
          "type": "uint256"
        }
      ],
      "stateMutability": "nonpayable",
      "type": "constructor"
    },
    {
      "anonymous": false,
      "inputs": [
        {
          "indexed": true,
          "internalType": "address",
          "name": "owner",
          "type": "address"
        },
        {
          "indexed": true,
          "internalType": "address",
          "name": "spender",
          "type": "address"
        },
        {
          "indexed": false,
          "internalType": "uint256",
          "name": "value",
          "type": "uint256"
        }
      ],
      "name": "Approval",
      "type": "event"
    },
    {
      "anonymous": false,
      "inputs": [
        {
          "indexed": true,
          "internalType": "address",
          "name": "target",
          "type": "address"
        },
        {
          "indexed": false,
          "internalType": "bool",
          "name": "frozen",
          "type": "bool"
        }
      ],
      "name": "FrozenFunds",
      "type": "event"
    },
    {
      "anonymous": false,
      "inputs": [
        {
          "indexed": true,
          "internalType": "address",
          "name": "previousOwner",
          "type": "address"
        },
        {
          "indexed": true,
          "internalType": "address",
          "name": "newOwner",
          "type": "address"
        }
      ],
      "name": "OwnershipTransferred",
      "type": "event"
    },
    {
      "anonymous": false,
      "inputs": [
        {
          "indexed": true,
          "internalType": "address",
          "name": "from",
          "type": "address"
        },
        {
          "indexed": true,
          "internalType": "address",
          "name": "to",
          "type": "address"
        },
        {
          "indexed": false,
          "internalType": "uint256",
          "name": "value",
          "type": "uint256"
        }
      ],
      "name": "Transfer",
      "type": "event"
    },
    {
      "inputs": [],
      "name": "TAX_FEE",
      "outputs": [
        {
          "internalType": "uint8",
          "name": "",
          "type": "uint8"
        }
      ],
      "stateMutability": "view",
      "type": "function"
    },
    {
      "inputs": [],
      "name": "_cap",
      "outputs": [
        {
          "internalType": "uint256",
          "name": "",
          "type": "uint256"
        }
      ],
      "stateMutability": "view",
      "type": "function"
    },
    {
      "inputs": [
        {
          "internalType": "address",
          "name": "owner",
          "type": "address"
        },
        {
          "internalType": "address",
          "name": "spender",
          "type": "address"
        }
      ],
      "name": "allowance",
      "outputs": [
        {
          "internalType": "uint256",
          "name": "",
          "type": "uint256"
        }
      ],
      "stateMutability": "view",
      "type": "function"
    },
    {
      "inputs": [
        {
          "internalType": "address",
          "name": "spender",
          "type": "address"
        },
        {
          "internalType": "uint256",
          "name": "amount",
          "type": "uint256"
        }
      ],
      "name": "approve",
      "outputs": [
        {
          "internalType": "bool",
          "name": "",
          "type": "bool"
        }
      ],
      "stateMutability": "nonpayable",
      "type": "function"
    },
    {
      "inputs": [
        {
          "internalType": "address",
          "name": "account",
          "type": "address"
        }
      ],
      "name": "balanceOf",
      "outputs": [
        {
          "internalType": "uint256",
          "name": "",
          "type": "uint256"
        }
      ],
      "stateMutability": "view",
      "type": "function"
    },
    {
      "inputs": [
        {
          "internalType": "uint256",
          "name": "amount",
          "type": "uint256"
        }
      ],
      "name": "burn",
      "outputs": [],
      "stateMutability": "nonpayable",
      "type": "function"
    },
    {
      "inputs": [
        {
          "internalType": "address",
          "name": "spender",
          "type": "address"
        },
        {
          "internalType": "uint256",
          "name": "subtractedValue",
          "type": "uint256"
        }
      ],
      "name": "decreaseAllowance",
      "outputs": [
        {
          "internalType": "bool",
          "name": "",
          "type": "bool"
        }
      ],
      "stateMutability": "nonpayable",
      "type": "function"
    },
    {
      "inputs": [
        {
          "internalType": "address",
          "name": "",
          "type": "address"
        }
      ],
      "name": "frozenAccount",
      "outputs": [
        {
          "internalType": "bool",
          "name": "",
          "type": "bool"
        }
      ],
      "stateMutability": "view",
      "type": "function"
    },
    {
      "inputs": [
        {
          "internalType": "address",
          "name": "spender",
          "type": "address"
        },
        {
          "internalType": "uint256",
          "name": "addedValue",
          "type": "uint256"
        }
      ],
      "name": "increaseAllowance",
      "outputs": [
        {
          "internalType": "bool",
          "name": "",
          "type": "bool"
        }
      ],
      "stateMutability": "nonpayable",
      "type": "function"
    },
    {
      "inputs": [
        {
          "internalType": "address",
          "name": "",
          "type": "address"
        }
      ],
      "name": "locks",
      "outputs": [
        {
          "internalType": "uint256",
          "name": "startTime",
          "type": "uint256"
        },
        {
          "internalType": "uint256",
          "name": "lockedToken",
          "type": "uint256"
        },
        {
          "internalType": "uint256",
          "name": "remainedToken",
          "type": "uint256"
        },
        {
          "internalType": "uint256",
          "name": "monthCount",
          "type": "uint256"
        }
      ],
      "stateMutability": "view",
      "type": "function"
    },
    {
      "inputs": [],
      "name": "name",
      "outputs": [
        {
          "internalType": "string",
          "name": "",
          "type": "string"
        }
      ],
      "stateMutability": "view",
      "type": "function"
    },
    {
      "inputs": [],
      "name": "owner",
      "outputs": [
        {
          "internalType": "address",
          "name": "",
          "type": "address"
        }
      ],
      "stateMutability": "view",
      "type": "function"
    },
    {
      "inputs": [],
      "name": "renounceOwnership",
      "outputs": [],
      "stateMutability": "nonpayable",
      "type": "function"
    },
    {
      "inputs": [],
      "name": "symbol",
      "outputs": [
        {
          "internalType": "string",
          "name": "",
          "type": "string"
        }
      ],
      "stateMutability": "view",
      "type": "function"
    },
    {
      "inputs": [],
      "name": "totalSupply",
      "outputs": [
        {
          "internalType": "uint256",
          "name": "",
          "type": "uint256"
        }
      ],
      "stateMutability": "view",
      "type": "function"
    },
    {
      "inputs": [
        {
          "internalType": "address",
          "name": "recipient",
          "type": "address"
        },
        {
          "internalType": "uint256",
          "name": "amount",
          "type": "uint256"
        }
      ],
      "name": "transfer",
      "outputs": [
        {
          "internalType": "bool",
          "name": "",
          "type": "bool"
        }
      ],
      "stateMutability": "nonpayable",
      "type": "function"
    },
    {
      "inputs": [
        {
          "internalType": "address",
          "name": "sender",
          "type": "address"
        },
        {
          "internalType": "address",
          "name": "recipient",
          "type": "address"
        },
        {
          "internalType": "uint256",
          "name": "amount",
          "type": "uint256"
        }
      ],
      "name": "transferFrom",
      "outputs": [
        {
          "internalType": "bool",
          "name": "",
          "type": "bool"
        }
      ],
      "stateMutability": "nonpayable",
      "type": "function"
    },
    {
      "inputs": [
        {
          "internalType": "address",
          "name": "newOwner",
          "type": "address"
        }
      ],
      "name": "transferOwnership",
      "outputs": [],
      "stateMutability": "nonpayable",
      "type": "function"
    },
    {
      "inputs": [
        {
          "internalType": "address",
          "name": "",
          "type": "address"
        }
      ],
      "name": "whitelists",
      "outputs": [
        {
          "internalType": "bool",
          "name": "",
          "type": "bool"
        }
      ],
      "stateMutability": "view",
      "type": "function"
    },
    {
      "inputs": [
        {
          "internalType": "address",
          "name": "to",
          "type": "address"
        },
        {
          "internalType": "uint256",
          "name": "amount",
          "type": "uint256"
        }
      ],
      "name": "burnFrom",
      "outputs": [],
      "stateMutability": "nonpayable",
      "type": "function"
    },
    {
      "inputs": [
        {
          "internalType": "address",
          "name": "_benefiecer",
          "type": "address"
        }
      ],
      "name": "buyToken",
      "outputs": [],
      "stateMutability": "payable",
      "type": "function"
    },
    {
      "inputs": [],
      "name": "sellToken",
      "outputs": [],
      "stateMutability": "nonpayable",
      "type": "function"
    },
    {
      "inputs": [],
      "name": "decimals",
      "outputs": [
        {
          "internalType": "uint8",
          "name": "",
          "type": "uint8"
        }
      ],
      "stateMutability": "pure",
      "type": "function"
    },
    {
      "inputs": [],
      "name": "cap",
      "outputs": [
        {
          "internalType": "uint256",
          "name": "",
          "type": "uint256"
        }
      ],
      "stateMutability": "view",
      "type": "function"
    },
    {
      "inputs": [
        {
          "internalType": "address",
          "name": "target",
          "type": "address"
        },
        {
          "internalType": "bool",
          "name": "freeze",
          "type": "bool"
        }
      ],
      "name": "freezeAccount",
      "outputs": [],
      "stateMutability": "nonpayable",
      "type": "function"
    },
    {
      "inputs": [
        {
          "internalType": "uint8",
          "name": "_tax_fee",
          "type": "uint8"
        }
      ],
      "name": "setTaxFee",
      "outputs": [],
      "stateMutability": "nonpayable",
      "type": "function"
    },
    {
      "inputs": [
        {
          "internalType": "address",
          "name": "_marketing",
          "type": "address"
        }
      ],
      "name": "setCommunityAddress",
      "outputs": [],
      "stateMutability": "nonpayable",
      "type": "function"
    },
    {
      "inputs": [
        {
          "internalType": "address",
          "name": "_candidate",
          "type": "address"
        },
        {
          "internalType": "bool",
          "name": "isInWhiteList",
          "type": "bool"
        }
      ],
      "name": "setWhiteList",
      "outputs": [],
      "stateMutability": "nonpayable",
      "type": "function"
    },
    {
      "inputs": [
        {
          "internalType": "address",
          "name": "target_",
          "type": "address"
        }
      ],
      "name": "lock",
      "outputs": [],
      "stateMutability": "nonpayable",
      "type": "function"
    },
    {
      "inputs": [
        {
          "internalType": "address",
          "name": "target_",
          "type": "address"
        }
      ],
      "name": "unLock",
      "outputs": [],
      "stateMutability": "nonpayable",
      "type": "function"
    }
  ],
  "bytecode": "0x60c06040526005600860146101000a81548160ff021916908360ff1602179055503480156200002d57600080fd5b50604051620042393803806200423983398181016040528101906200005391906200065f565b6040518060400160405280600881526020017f4669646f4d6574610000000000000000000000000000000000000000000000008152506040518060400160405280600381526020017f464d4300000000000000000000000000000000000000000000000000000000008152508160039080519060200190620000d79291906200056f565b508060049080519060200190620000f09291906200056f565b50505062000113620001076200019760201b60201c565b6200019f60201b60201c565b6000811162000159576040517f08c379a0000000000000000000000000000000000000000000000000000000008152600401620001509062000707565b60405180910390fd5b8060808181525050600a60a081815250506200017d3360016200026560201b60201c565b6200018f3383620003c260201b60201c565b50506200099e565b600033905090565b6000600560009054906101000a900473ffffffffffffffffffffffffffffffffffffffff16905081600560006101000a81548173ffffffffffffffffffffffffffffffffffffffff021916908373ffffffffffffffffffffffffffffffffffffffff1602179055508173ffffffffffffffffffffffffffffffffffffffff168173ffffffffffffffffffffffffffffffffffffffff167f8be0079c531659141344cd1fd0a4f28419497f9722a3daafe3b4186f6b6457e060405160405180910390a35050565b620002756200019760201b60201c565b73ffffffffffffffffffffffffffffffffffffffff166200029b6200053b60201b60201c565b73ffffffffffffffffffffffffffffffffffffffff1614620002f4576040517f08c379a0000000000000000000000000000000000000000000000000000000008152600401620002eb9062000779565b60405180910390fd5b600073ffffffffffffffffffffffffffffffffffffffff168273ffffffffffffffffffffffffffffffffffffffff16141562000367576040517f08c379a00000000000000000000000000000000000000000000000000000000081526004016200035e90620007eb565b60405180910390fd5b80600760008473ffffffffffffffffffffffffffffffffffffffff1673ffffffffffffffffffffffffffffffffffffffff16815260200190815260200160002060006101000a81548160ff0219169083151502179055505050565b600073ffffffffffffffffffffffffffffffffffffffff168273ffffffffffffffffffffffffffffffffffffffff16141562000435576040517f08c379a00000000000000000000000000000000000000000000000000000000081526004016200042c906200085d565b60405180910390fd5b62000449600083836200056560201b60201c565b80600260008282546200045d9190620008ae565b92505081905550806000808473ffffffffffffffffffffffffffffffffffffffff1673ffffffffffffffffffffffffffffffffffffffff1681526020019081526020016000206000828254620004b49190620008ae565b925050819055508173ffffffffffffffffffffffffffffffffffffffff16600073ffffffffffffffffffffffffffffffffffffffff167fddf252ad1be2c89b69c2b068fc378daa952ba7f163c4a11628f55a4df523b3ef836040516200051b91906200091c565b60405180910390a362000537600083836200056a60201b60201c565b5050565b6000600560009054906101000a900473ffffffffffffffffffffffffffffffffffffffff16905090565b505050565b505050565b8280546200057d9062000968565b90600052602060002090601f016020900481019282620005a15760008555620005ed565b82601f10620005bc57805160ff1916838001178555620005ed565b82800160010185558215620005ed579182015b82811115620005ec578251825591602001919060010190620005cf565b5b509050620005fc919062000600565b5090565b5b808211156200061b57600081600090555060010162000601565b5090565b600080fd5b6000819050919050565b620006398162000624565b81146200064557600080fd5b50565b60008151905062000659816200062e565b92915050565b600080604083850312156200067957620006786200061f565b5b6000620006898582860162000648565b92505060206200069c8582860162000648565b9150509250929050565b600082825260208201905092915050565b7f45524332304361707065643a2063617020697320300000000000000000000000600082015250565b6000620006ef601583620006a6565b9150620006fc82620006b7565b602082019050919050565b600060208201905081810360008301526200072281620006e0565b9050919050565b7f4f776e61626c653a2063616c6c6572206973206e6f7420746865206f776e6572600082015250565b600062000761602083620006a6565b91506200076e8262000729565b602082019050919050565b60006020820190508181036000830152620007948162000752565b9050919050565b7f496e76616c696420616464726573730000000000000000000000000000000000600082015250565b6000620007d3600f83620006a6565b9150620007e0826200079b565b602082019050919050565b600060208201905081810360008301526200080681620007c4565b9050919050565b7f45524332303a206d696e7420746f20746865207a65726f206164647265737300600082015250565b600062000845601f83620006a6565b915062000852826200080d565b602082019050919050565b60006020820190508181036000830152620008788162000836565b9050919050565b7f4e487b7100000000000000000000000000000000000000000000000000000000600052601160045260246000fd5b6000620008bb8262000624565b9150620008c88362000624565b9250827fffffffffffffffffffffffffffffffffffffffffffffffffffffffffffffffff038211156200090057620008ff6200087f565b5b828201905092915050565b620009168162000624565b82525050565b60006020820190506200093360008301846200090b565b92915050565b7f4e487b7100000000000000000000000000000000000000000000000000000000600052602260045260246000fd5b600060028204905060018216806200098157607f821691505b6020821081141562000998576200099762000939565b5b50919050565b60805160a051613867620009d260003960008181612410015261244501526000818161074c015261094d01526138676000f3fe6080604052600436106101cd5760003560e01c80637e72fb52116100f7578063b1797d2211610095578063e724529c11610064578063e724529c146106a6578063f2fde38b146106cf578063f435f5a7146106f8578063f7ce447914610721576101cd565b8063b1797d22146105d8578063b414d4b614610601578063d07c9c811461063e578063dd62ed3e14610669576101cd565b806395d89b41116100d157806395d89b411461051c5780639769f0b014610547578063a457c2d71461055e578063a9059cbb1461059b576101cd565b80637e72fb52146104ac5780638d14e127146104c85780638da5cb5b146104f1576101cd565b8063355274ea1161016f57806370a082311161013e57806370a0823114610406578063715018a61461044357806376e6d2b41461045a57806379cc679014610483576101cd565b8063355274ea14610335578063395093511461036057806342966c681461039d5780635de9a137146103c6576101cd565b806318160ddd116101ab57806318160ddd146102655780631e7be2101461029057806323b872dd146102cd578063313ce5671461030a576101cd565b8063060cf4e8146101d257806306fdde03146101fd578063095ea7b314610228575b600080fd5b3480156101de57600080fd5b506101e761074a565b6040516101f4919061271a565b60405180910390f35b34801561020957600080fd5b5061021261076e565b60405161021f91906127ce565b60405180910390f35b34801561023457600080fd5b5061024f600480360381019061024a919061287f565b610800565b60405161025c91906128da565b60405180910390f35b34801561027157600080fd5b5061027a61081e565b604051610287919061271a565b60405180910390f35b34801561029c57600080fd5b506102b760048036038101906102b291906128f5565b610828565b6040516102c491906128da565b60405180910390f35b3480156102d957600080fd5b506102f460048036038101906102ef9190612922565b610848565b60405161030191906128da565b60405180910390f35b34801561031657600080fd5b5061031f610940565b60405161032c9190612991565b60405180910390f35b34801561034157600080fd5b5061034a610949565b604051610357919061271a565b60405180910390f35b34801561036c57600080fd5b506103876004803603810190610382919061287f565b610971565b60405161039491906128da565b60405180910390f35b3480156103a957600080fd5b506103c460048036038101906103bf91906129ac565b610a1d565b005b3480156103d257600080fd5b506103ed60048036038101906103e891906128f5565b610a31565b6040516103fd94939291906129d9565b60405180910390f35b34801561041257600080fd5b5061042d600480360381019061042891906128f5565b610a61565b60405161043a919061271a565b60405180910390f35b34801561044f57600080fd5b50610458610aa9565b005b34801561046657600080fd5b50610481600480360381019061047c91906128f5565b610b31565b005b34801561048f57600080fd5b506104aa60048036038101906104a5919061287f565b610fb3565b005b6104c660048036038101906104c191906128f5565b610fc1565b005b3480156104d457600080fd5b506104ef60048036038101906104ea9190612a4a565b61105a565b005b3480156104fd57600080fd5b506105066111a1565b6040516105139190612a99565b60405180910390f35b34801561052857600080fd5b506105316111cb565b60405161053e91906127ce565b60405180910390f35b34801561055357600080fd5b5061055c61125d565b005b34801561056a57600080fd5b506105856004803603810190610580919061287f565b611360565b60405161059291906128da565b60405180910390f35b3480156105a757600080fd5b506105c260048036038101906105bd919061287f565b61144b565b6040516105cf91906128da565b60405180910390f35b3480156105e457600080fd5b506105ff60048036038101906105fa9190612ae0565b611469565b005b34801561060d57600080fd5b50610628600480360381019061062391906128f5565b61154a565b60405161063591906128da565b60405180910390f35b34801561064a57600080fd5b5061065361156a565b6040516106609190612991565b60405180910390f35b34801561067557600080fd5b50610690600480360381019061068b9190612b0d565b61157d565b60405161069d919061271a565b60405180910390f35b3480156106b257600080fd5b506106cd60048036038101906106c89190612a4a565b611604565b005b3480156106db57600080fd5b506106f660048036038101906106f191906128f5565b611729565b005b34801561070457600080fd5b5061071f600480360381019061071a91906128f5565b611821565b005b34801561072d57600080fd5b50610748600480360381019061074391906128f5565b611ab7565b005b7f000000000000000000000000000000000000000000000000000000000000000081565b60606003805461077d90612b7c565b80601f01602080910402602001604051908101604052809291908181526020018280546107a990612b7c565b80156107f65780601f106107cb576101008083540402835291602001916107f6565b820191906000526020600020905b8154815290600101906020018083116107d957829003601f168201915b5050505050905090565b600061081461080d611be7565b8484611bef565b6001905092915050565b6000600254905090565b60076020528060005260406000206000915054906101000a900460ff1681565b6000610855848484611dba565b6000600160008673ffffffffffffffffffffffffffffffffffffffff1673ffffffffffffffffffffffffffffffffffffffff16815260200190815260200160002060006108a0611be7565b73ffffffffffffffffffffffffffffffffffffffff1673ffffffffffffffffffffffffffffffffffffffff16815260200190815260200160002054905082811015610920576040517f08c379a000000000000000000000000000000000000000000000000000000000815260040161091790612c20565b60405180910390fd5b6109348561092c611be7565b858403611bef565b60019150509392505050565b60006009905090565b60007f0000000000000000000000000000000000000000000000000000000000000000905090565b6000610a1361097e611be7565b84846001600061098c611be7565b73ffffffffffffffffffffffffffffffffffffffff1673ffffffffffffffffffffffffffffffffffffffff16815260200190815260200160002060008873ffffffffffffffffffffffffffffffffffffffff1673ffffffffffffffffffffffffffffffffffffffff16815260200190815260200160002054610a0e9190612c6f565b611bef565b6001905092915050565b610a2e610a28611be7565b8261200f565b50565b60096020528060005260406000206000915090508060000154908060010154908060020154908060030154905084565b60008060008373ffffffffffffffffffffffffffffffffffffffff1673ffffffffffffffffffffffffffffffffffffffff168152602001908152602001600020549050919050565b610ab1611be7565b73ffffffffffffffffffffffffffffffffffffffff16610acf6111a1565b73ffffffffffffffffffffffffffffffffffffffff1614610b25576040517f08c379a0000000000000000000000000000000000000000000000000000000008152600401610b1c90612d11565b60405180910390fd5b610b2f60006121e6565b565b610b39611be7565b73ffffffffffffffffffffffffffffffffffffffff16610b576111a1565b73ffffffffffffffffffffffffffffffffffffffff1614610bad576040517f08c379a0000000000000000000000000000000000000000000000000000000008152600401610ba490612d11565b60405180910390fd5b600073ffffffffffffffffffffffffffffffffffffffff168173ffffffffffffffffffffffffffffffffffffffff161415610c1d576040517f08c379a0000000000000000000000000000000000000000000000000000000008152600401610c1490612d7d565b60405180910390fd5b6000600960008373ffffffffffffffffffffffffffffffffffffffff1673ffffffffffffffffffffffffffffffffffffffff1681526020019081526020016000206000015490506000600960008473ffffffffffffffffffffffffffffffffffffffff1673ffffffffffffffffffffffffffffffffffffffff1681526020019081526020016000206001015490506000600960008573ffffffffffffffffffffffffffffffffffffffff1673ffffffffffffffffffffffffffffffffffffffff1681526020019081526020016000206002015490506000600960008673ffffffffffffffffffffffffffffffffffffffff1673ffffffffffffffffffffffffffffffffffffffff1681526020019081526020016000206003015490506000821415610d7d576040517f08c379a0000000000000000000000000000000000000000000000000000000008152600401610d7490612de9565b60405180910390fd5b6276a70084610d8c9190612c6f565b4211610dcd576040517f08c379a0000000000000000000000000000000000000000000000000000000008152600401610dc490612e55565b60405180910390fd5b60006276a70085610dde9190612c6f565b42610de99190612e75565b9050600062278d00600162278d00610e019190612e75565b83610e0c9190612c6f565b610e169190612ed8565b905060008382610e269190612e75565b90506005811115610e3657600590505b60008111610e79576040517f08c379a0000000000000000000000000000000000000000000000000000000008152600401610e7090612f7b565b60405180910390fd5b60006064601483610e8a9190612f9b565b88610e959190612f9b565b610e9f9190612ed8565b9050806000808b73ffffffffffffffffffffffffffffffffffffffff1673ffffffffffffffffffffffffffffffffffffffff1681526020019081526020016000206000828254610eef9190612c6f565b9250508190555081600960008b73ffffffffffffffffffffffffffffffffffffffff1673ffffffffffffffffffffffffffffffffffffffff1681526020019081526020016000206003016000828254610f489190612c6f565b9250508190555080600960008b73ffffffffffffffffffffffffffffffffffffffff1673ffffffffffffffffffffffffffffffffffffffff1681526020019081526020016000206002016000828254610fa19190612e75565b92505081905550505050505050505050565b610fbd82826122ac565b5050565b600073ffffffffffffffffffffffffffffffffffffffff168173ffffffffffffffffffffffffffffffffffffffff161415611031576040517f08c379a000000000000000000000000000000000000000000000000000000000815260040161102890613041565b60405180910390fd5b600034905060006110418261240c565b905061105561104e6111a1565b8483611dba565b505050565b611062611be7565b73ffffffffffffffffffffffffffffffffffffffff166110806111a1565b73ffffffffffffffffffffffffffffffffffffffff16146110d6576040517f08c379a00000000000000000000000000000000000000000000000000000000081526004016110cd90612d11565b60405180910390fd5b600073ffffffffffffffffffffffffffffffffffffffff168273ffffffffffffffffffffffffffffffffffffffff161415611146576040517f08c379a000000000000000000000000000000000000000000000000000000000815260040161113d90613041565b60405180910390fd5b80600760008473ffffffffffffffffffffffffffffffffffffffff1673ffffffffffffffffffffffffffffffffffffffff16815260200190815260200160002060006101000a81548160ff0219169083151502179055505050565b6000600560009054906101000a900473ffffffffffffffffffffffffffffffffffffffff16905090565b6060600480546111da90612b7c565b80601f016020809104026020016040519081016040528092919081815260200182805461120690612b7c565b80156112535780601f1061122857610100808354040283529160200191611253565b820191906000526020600020905b81548152906001019060200180831161123657829003601f168201915b5050505050905090565b600760003373ffffffffffffffffffffffffffffffffffffffff1673ffffffffffffffffffffffffffffffffffffffff16815260200190815260200160002060009054906101000a900460ff166112e9576040517f08c379a00000000000000000000000000000000000000000000000000000000081526004016112e0906130ad565b60405180910390fd5b60006112f433610a61565b9050600061130182612441565b90503373ffffffffffffffffffffffffffffffffffffffff166108fc829081150290604051600060405180830381858888f19350505050158015611349573d6000803e3d6000fd5b5061135c336113566111a1565b84611dba565b5050565b6000806001600061136f611be7565b73ffffffffffffffffffffffffffffffffffffffff1673ffffffffffffffffffffffffffffffffffffffff16815260200190815260200160002060008573ffffffffffffffffffffffffffffffffffffffff1673ffffffffffffffffffffffffffffffffffffffff1681526020019081526020016000205490508281101561142c576040517f08c379a00000000000000000000000000000000000000000000000000000000081526004016114239061313f565b60405180910390fd5b611440611437611be7565b85858403611bef565b600191505092915050565b600061145f611458611be7565b8484611dba565b6001905092915050565b611471611be7565b73ffffffffffffffffffffffffffffffffffffffff1661148f6111a1565b73ffffffffffffffffffffffffffffffffffffffff16146114e5576040517f08c379a00000000000000000000000000000000000000000000000000000000081526004016114dc90612d11565b60405180910390fd5b60648160ff16111561152c576040517f08c379a0000000000000000000000000000000000000000000000000000000008152600401611523906131d1565b60405180910390fd5b80600860146101000a81548160ff021916908360ff16021790555050565b60066020528060005260406000206000915054906101000a900460ff1681565b600860149054906101000a900460ff1681565b6000600160008473ffffffffffffffffffffffffffffffffffffffff1673ffffffffffffffffffffffffffffffffffffffff16815260200190815260200160002060008373ffffffffffffffffffffffffffffffffffffffff1673ffffffffffffffffffffffffffffffffffffffff16815260200190815260200160002054905092915050565b61160c611be7565b73ffffffffffffffffffffffffffffffffffffffff1661162a6111a1565b73ffffffffffffffffffffffffffffffffffffffff1614611680576040517f08c379a000000000000000000000000000000000000000000000000000000000815260040161167790612d11565b60405180910390fd5b80600660008473ffffffffffffffffffffffffffffffffffffffff1673ffffffffffffffffffffffffffffffffffffffff16815260200190815260200160002060006101000a81548160ff0219169083151502179055508173ffffffffffffffffffffffffffffffffffffffff167f48335238b4855f35377ed80f164e8c6f3c366e54ac00b96a6402d4a9814a03a58260405161171d91906128da565b60405180910390a25050565b611731611be7565b73ffffffffffffffffffffffffffffffffffffffff1661174f6111a1565b73ffffffffffffffffffffffffffffffffffffffff16146117a5576040517f08c379a000000000000000000000000000000000000000000000000000000000815260040161179c90612d11565b60405180910390fd5b600073ffffffffffffffffffffffffffffffffffffffff168173ffffffffffffffffffffffffffffffffffffffff161415611815576040517f08c379a000000000000000000000000000000000000000000000000000000000815260040161180c90613263565b60405180910390fd5b61181e816121e6565b50565b611829611be7565b73ffffffffffffffffffffffffffffffffffffffff166118476111a1565b73ffffffffffffffffffffffffffffffffffffffff161461189d576040517f08c379a000000000000000000000000000000000000000000000000000000000815260040161189490612d11565b60405180910390fd5b600073ffffffffffffffffffffffffffffffffffffffff168173ffffffffffffffffffffffffffffffffffffffff16141561190d576040517f08c379a000000000000000000000000000000000000000000000000000000000815260040161190490612d7d565b60405180910390fd5b600061191882610a61565b9050600081141561195e576040517f08c379a0000000000000000000000000000000000000000000000000000000008152600401611955906132cf565b60405180910390fd5b6000600960008473ffffffffffffffffffffffffffffffffffffffff1673ffffffffffffffffffffffffffffffffffffffff16815260200190815260200160002060000154146119e3576040517f08c379a00000000000000000000000000000000000000000000000000000000081526004016119da9061333b565b60405180910390fd5b60405180608001604052804281526020018281526020018281526020016000815250600960008473ffffffffffffffffffffffffffffffffffffffff1673ffffffffffffffffffffffffffffffffffffffff1681526020019081526020016000206000820151816000015560208201518160010155604082015181600201556060820151816003015590505060008060008473ffffffffffffffffffffffffffffffffffffffff1673ffffffffffffffffffffffffffffffffffffffff168152602001908152602001600020819055505050565b611abf611be7565b73ffffffffffffffffffffffffffffffffffffffff16611add6111a1565b73ffffffffffffffffffffffffffffffffffffffff1614611b33576040517f08c379a0000000000000000000000000000000000000000000000000000000008152600401611b2a90612d11565b60405180910390fd5b600073ffffffffffffffffffffffffffffffffffffffff168173ffffffffffffffffffffffffffffffffffffffff161415611ba3576040517f08c379a0000000000000000000000000000000000000000000000000000000008152600401611b9a906133a7565b60405180910390fd5b80600860006101000a81548173ffffffffffffffffffffffffffffffffffffffff021916908373ffffffffffffffffffffffffffffffffffffffff16021790555050565b600033905090565b600073ffffffffffffffffffffffffffffffffffffffff168373ffffffffffffffffffffffffffffffffffffffff161415611c5f576040517f08c379a0000000000000000000000000000000000000000000000000000000008152600401611c5690613439565b60405180910390fd5b600073ffffffffffffffffffffffffffffffffffffffff168273ffffffffffffffffffffffffffffffffffffffff161415611ccf576040517f08c379a0000000000000000000000000000000000000000000000000000000008152600401611cc6906134cb565b60405180910390fd5b80600160008573ffffffffffffffffffffffffffffffffffffffff1673ffffffffffffffffffffffffffffffffffffffff16815260200190815260200160002060008473ffffffffffffffffffffffffffffffffffffffff1673ffffffffffffffffffffffffffffffffffffffff168152602001908152602001600020819055508173ffffffffffffffffffffffffffffffffffffffff168373ffffffffffffffffffffffffffffffffffffffff167f8c5be1e5ebec7d5bd14f71427d1e84f3dd0314c0f7b2291e5b200ac8c7c3b92583604051611dad919061271a565b60405180910390a3505050565b600660008473ffffffffffffffffffffffffffffffffffffffff1673ffffffffffffffffffffffffffffffffffffffff16815260200190815260200160002060009054906101000a900460ff16156040518060400160405280601881526020017f53656e646572206163636f756e742069732066726f7a656e000000000000000081525090611e7f576040517f08c379a0000000000000000000000000000000000000000000000000000000008152600401611e7691906127ce565b60405180910390fd5b50600660008373ffffffffffffffffffffffffffffffffffffffff1673ffffffffffffffffffffffffffffffffffffffff16815260200190815260200160002060009054906101000a900460ff16156040518060400160405280601a81526020017f5265636569766572206163636f756e742069732066726f7a656e00000000000081525090611f45576040517f08c379a0000000000000000000000000000000000000000000000000000000008152600401611f3c91906127ce565b60405180910390fd5b508273ffffffffffffffffffffffffffffffffffffffff16611f656111a1565b73ffffffffffffffffffffffffffffffffffffffff161415611f9157611f8c838383612476565b61200a565b60006064600860149054906101000a900460ff1660ff1683611fb39190612f9b565b611fbd9190612ed8565b905060008183611fcd9190612e75565b9050611ffc85600860009054906101000a900473ffffffffffffffffffffffffffffffffffffffff1684612476565b612007858583612476565b50505b505050565b600073ffffffffffffffffffffffffffffffffffffffff168273ffffffffffffffffffffffffffffffffffffffff16141561207f576040517f08c379a00000000000000000000000000000000000000000000000000000000081526004016120769061355d565b60405180910390fd5b61208b826000836126f7565b60008060008473ffffffffffffffffffffffffffffffffffffffff1673ffffffffffffffffffffffffffffffffffffffff16815260200190815260200160002054905081811015612111576040517f08c379a0000000000000000000000000000000000000000000000000000000008152600401612108906135ef565b60405180910390fd5b8181036000808573ffffffffffffffffffffffffffffffffffffffff1673ffffffffffffffffffffffffffffffffffffffff1681526020019081526020016000208190555081600260008282546121689190612e75565b92505081905550600073ffffffffffffffffffffffffffffffffffffffff168373ffffffffffffffffffffffffffffffffffffffff167fddf252ad1be2c89b69c2b068fc378daa952ba7f163c4a11628f55a4df523b3ef846040516121cd919061271a565b60405180910390a36121e1836000846126fc565b505050565b6000600560009054906101000a900473ffffffffffffffffffffffffffffffffffffffff16905081600560006101000a81548173ffffffffffffffffffffffffffffffffffffffff021916908373ffffffffffffffffffffffffffffffffffffffff1602179055508173ffffffffffffffffffffffffffffffffffffffff168173ffffffffffffffffffffffffffffffffffffffff167f8be0079c531659141344cd1fd0a4f28419497f9722a3daafe3b4186f6b6457e060405160405180910390a35050565b600073ffffffffffffffffffffffffffffffffffffffff168273ffffffffffffffffffffffffffffffffffffffff16141561231c576040517f08c379a00000000000000000000000000000000000000000000000000000000081526004016123139061365b565b60405180910390fd5b612328600083836126f7565b806002600082825461233a9190612c6f565b92505081905550806000808473ffffffffffffffffffffffffffffffffffffffff1673ffffffffffffffffffffffffffffffffffffffff168152602001908152602001600020600082825461238f9190612c6f565b925050819055508173ffffffffffffffffffffffffffffffffffffffff16600073ffffffffffffffffffffffffffffffffffffffff167fddf252ad1be2c89b69c2b068fc378daa952ba7f163c4a11628f55a4df523b3ef836040516123f4919061271a565b60405180910390a3612408600083836126fc565b5050565b60007f00000000000000000000000000000000000000000000000000000000000000008261243a9190612f9b565b9050919050565b60007f00000000000000000000000000000000000000000000000000000000000000008261246f9190612ed8565b9050919050565b600073ffffffffffffffffffffffffffffffffffffffff168373ffffffffffffffffffffffffffffffffffffffff1614156124e6576040517f08c379a00000000000000000000000000000000000000000000000000000000081526004016124dd906136ed565b60405180910390fd5b600073ffffffffffffffffffffffffffffffffffffffff168273ffffffffffffffffffffffffffffffffffffffff161415612556576040517f08c379a000000000000000000000000000000000000000000000000000000000815260040161254d9061377f565b60405180910390fd5b6125618383836126f7565b60008060008573ffffffffffffffffffffffffffffffffffffffff1673ffffffffffffffffffffffffffffffffffffffff168152602001908152602001600020549050818110156125e7576040517f08c379a00000000000000000000000000000000000000000000000000000000081526004016125de90613811565b60405180910390fd5b8181036000808673ffffffffffffffffffffffffffffffffffffffff1673ffffffffffffffffffffffffffffffffffffffff16815260200190815260200160002081905550816000808573ffffffffffffffffffffffffffffffffffffffff1673ffffffffffffffffffffffffffffffffffffffff168152602001908152602001600020600082825461267a9190612c6f565b925050819055508273ffffffffffffffffffffffffffffffffffffffff168473ffffffffffffffffffffffffffffffffffffffff167fddf252ad1be2c89b69c2b068fc378daa952ba7f163c4a11628f55a4df523b3ef846040516126de919061271a565b60405180910390a36126f18484846126fc565b50505050565b505050565b505050565b6000819050919050565b61271481612701565b82525050565b600060208201905061272f600083018461270b565b92915050565b600081519050919050565b600082825260208201905092915050565b60005b8381101561276f578082015181840152602081019050612754565b8381111561277e576000848401525b50505050565b6000601f19601f8301169050919050565b60006127a082612735565b6127aa8185612740565b93506127ba818560208601612751565b6127c381612784565b840191505092915050565b600060208201905081810360008301526127e88184612795565b905092915050565b600080fd5b600073ffffffffffffffffffffffffffffffffffffffff82169050919050565b6000612820826127f5565b9050919050565b61283081612815565b811461283b57600080fd5b50565b60008135905061284d81612827565b92915050565b61285c81612701565b811461286757600080fd5b50565b60008135905061287981612853565b92915050565b60008060408385031215612896576128956127f0565b5b60006128a48582860161283e565b92505060206128b58582860161286a565b9150509250929050565b60008115159050919050565b6128d4816128bf565b82525050565b60006020820190506128ef60008301846128cb565b92915050565b60006020828403121561290b5761290a6127f0565b5b60006129198482850161283e565b91505092915050565b60008060006060848603121561293b5761293a6127f0565b5b60006129498682870161283e565b935050602061295a8682870161283e565b925050604061296b8682870161286a565b9150509250925092565b600060ff82169050919050565b61298b81612975565b82525050565b60006020820190506129a66000830184612982565b92915050565b6000602082840312156129c2576129c16127f0565b5b60006129d08482850161286a565b91505092915050565b60006080820190506129ee600083018761270b565b6129fb602083018661270b565b612a08604083018561270b565b612a15606083018461270b565b95945050505050565b612a27816128bf565b8114612a3257600080fd5b50565b600081359050612a4481612a1e565b92915050565b60008060408385031215612a6157612a606127f0565b5b6000612a6f8582860161283e565b9250506020612a8085828601612a35565b9150509250929050565b612a9381612815565b82525050565b6000602082019050612aae6000830184612a8a565b92915050565b612abd81612975565b8114612ac857600080fd5b50565b600081359050612ada81612ab4565b92915050565b600060208284031215612af657612af56127f0565b5b6000612b0484828501612acb565b91505092915050565b60008060408385031215612b2457612b236127f0565b5b6000612b328582860161283e565b9250506020612b438582860161283e565b9150509250929050565b7f4e487b7100000000000000000000000000000000000000000000000000000000600052602260045260246000fd5b60006002820490506001821680612b9457607f821691505b60208210811415612ba857612ba7612b4d565b5b50919050565b7f45524332303a207472616e7366657220616d6f756e742065786365656473206160008201527f6c6c6f77616e6365000000000000000000000000000000000000000000000000602082015250565b6000612c0a602883612740565b9150612c1582612bae565b604082019050919050565b60006020820190508181036000830152612c3981612bfd565b9050919050565b7f4e487b7100000000000000000000000000000000000000000000000000000000600052601160045260246000fd5b6000612c7a82612701565b9150612c8583612701565b9250827fffffffffffffffffffffffffffffffffffffffffffffffffffffffffffffffff03821115612cba57612cb9612c40565b5b828201905092915050565b7f4f776e61626c653a2063616c6c6572206973206e6f7420746865206f776e6572600082015250565b6000612cfb602083612740565b9150612d0682612cc5565b602082019050919050565b60006020820190508181036000830152612d2a81612cee565b9050919050565b7f496e76616c696420746172676574000000000000000000000000000000000000600082015250565b6000612d67600e83612740565b9150612d7282612d31565b602082019050919050565b60006020820190508181036000830152612d9681612d5a565b9050919050565b7f416c6c20746f6b656e732061726520756e6c6f636b6564000000000000000000600082015250565b6000612dd3601783612740565b9150612dde82612d9d565b602082019050919050565b60006020820190508181036000830152612e0281612dc6565b9050919050565b7f556e4c6f636b696e6720706572696f64206973206e6f74206f70656e65640000600082015250565b6000612e3f601e83612740565b9150612e4a82612e09565b602082019050919050565b60006020820190508181036000830152612e6e81612e32565b9050919050565b6000612e8082612701565b9150612e8b83612701565b925082821015612e9e57612e9d612c40565b5b828203905092915050565b7f4e487b7100000000000000000000000000000000000000000000000000000000600052601260045260246000fd5b6000612ee382612701565b9150612eee83612701565b925082612efe57612efd612ea9565b5b828204905092915050565b7f52656c65617361626c6520746f6b656e2074696c6c206e6f772069732072656c60008201527f6561736564000000000000000000000000000000000000000000000000000000602082015250565b6000612f65602583612740565b9150612f7082612f09565b604082019050919050565b60006020820190508181036000830152612f9481612f58565b9050919050565b6000612fa682612701565b9150612fb183612701565b9250817fffffffffffffffffffffffffffffffffffffffffffffffffffffffffffffffff0483118215151615612fea57612fe9612c40565b5b828202905092915050565b7f496e76616c696420616464726573730000000000000000000000000000000000600082015250565b600061302b600f83612740565b915061303682612ff5565b602082019050919050565b6000602082019050818103600083015261305a8161301e565b9050919050565b7f596f7520617265206e6f7420616c6c6f77656420746f2073656c6c0000000000600082015250565b6000613097601b83612740565b91506130a282613061565b602082019050919050565b600060208201905081810360008301526130c68161308a565b9050919050565b7f45524332303a2064656372656173656420616c6c6f77616e63652062656c6f7760008201527f207a65726f000000000000000000000000000000000000000000000000000000602082015250565b6000613129602583612740565b9150613134826130cd565b604082019050919050565b600060208201905081810360008301526131588161311c565b9050919050565b7f54617820252073686f756c64206265206c657373207468616e20657175616c2060008201527f746f203130302500000000000000000000000000000000000000000000000000602082015250565b60006131bb602783612740565b91506131c68261315f565b604082019050919050565b600060208201905081810360008301526131ea816131ae565b9050919050565b7f4f776e61626c653a206e6577206f776e657220697320746865207a65726f206160008201527f6464726573730000000000000000000000000000000000000000000000000000602082015250565b600061324d602683612740565b9150613258826131f1565b604082019050919050565b6000602082019050818103600083015261327c81613240565b9050919050565b7f4e6f20746f6b656e20746f206c6f636b2e000000000000000000000000000000600082015250565b60006132b9601183612740565b91506132c482613283565b602082019050919050565b600060208201905081810360008301526132e8816132ac565b9050919050565b7f416c7265616479204c6f636b6564000000000000000000000000000000000000600082015250565b6000613325600e83612740565b9150613330826132ef565b602082019050919050565b6000602082019050818103600083015261335481613318565b9050919050565b7f436f6d6d756e6974792077616c6c6574206973206e6f742076616c6964000000600082015250565b6000613391601d83612740565b915061339c8261335b565b602082019050919050565b600060208201905081810360008301526133c081613384565b9050919050565b7f45524332303a20617070726f76652066726f6d20746865207a65726f2061646460008201527f7265737300000000000000000000000000000000000000000000000000000000602082015250565b6000613423602483612740565b915061342e826133c7565b604082019050919050565b6000602082019050818103600083015261345281613416565b9050919050565b7f45524332303a20617070726f766520746f20746865207a65726f20616464726560008201527f7373000000000000000000000000000000000000000000000000000000000000602082015250565b60006134b5602283612740565b91506134c082613459565b604082019050919050565b600060208201905081810360008301526134e4816134a8565b9050919050565b7f45524332303a206275726e2066726f6d20746865207a65726f2061646472657360008201527f7300000000000000000000000000000000000000000000000000000000000000602082015250565b6000613547602183612740565b9150613552826134eb565b604082019050919050565b600060208201905081810360008301526135768161353a565b9050919050565b7f45524332303a206275726e20616d6f756e7420657863656564732062616c616e60008201527f6365000000000000000000000000000000000000000000000000000000000000602082015250565b60006135d9602283612740565b91506135e48261357d565b604082019050919050565b60006020820190508181036000830152613608816135cc565b9050919050565b7f45524332303a206d696e7420746f20746865207a65726f206164647265737300600082015250565b6000613645601f83612740565b91506136508261360f565b602082019050919050565b6000602082019050818103600083015261367481613638565b9050919050565b7f45524332303a207472616e736665722066726f6d20746865207a65726f20616460008201527f6472657373000000000000000000000000000000000000000000000000000000602082015250565b60006136d7602583612740565b91506136e28261367b565b604082019050919050565b60006020820190508181036000830152613706816136ca565b9050919050565b7f45524332303a207472616e7366657220746f20746865207a65726f206164647260008201527f6573730000000000000000000000000000000000000000000000000000000000602082015250565b6000613769602383612740565b91506137748261370d565b604082019050919050565b600060208201905081810360008301526137988161375c565b9050919050565b7f45524332303a207472616e7366657220616d6f756e742065786365656473206260008201527f616c616e63650000000000000000000000000000000000000000000000000000602082015250565b60006137fb602683612740565b91506138068261379f565b604082019050919050565b6000602082019050818103600083015261382a816137ee565b905091905056fea2646970667358221220021960e695b4eb7d42eb79c09c750b6a72eeddb3fb696d0606eb38921ef59a1564736f6c634300080a0033",
  "immutableReferences": {
    "1975": [
      {
        "length": 32,
        "start": 1868
      },
      {
        "length": 32,
        "start": 2381
      }
    ],
    "1990": [
      {
        "length": 32,
        "start": 9232
      },
      {
        "length": 32,
        "start": 9285
      }
    ]
  },
  "source": "pragma solidity ^0.8.10;\r\n\r\nimport \"./ERC20/ERC20Burnable.sol\";\r\nimport \"@openzeppelin/contracts/access/Ownable.sol\";\r\n\r\ncontract FidoMeta is ERC20Burnable, Ownable {\r\n    \r\n    string constant SENDER_FROZEN_ERR = \"Sender account is frozen\";\r\n    string constant RECIEVER_FROZEN_ERR = \"Receiver account is frozen\";\r\n    uint256 public immutable _cap;\r\n\r\n    mapping(address => bool) public frozenAccount;\r\n\r\n    mapping(address => bool) public whitelists;\r\n    \r\n    address marketing;\r\n\r\n    uint8 public TAX_FEE = 5;\r\n\r\n    \r\n    uint private immutable rate;\r\n\r\n    struct LockDetails {\r\n        uint startTime;\r\n        uint lockedToken;\r\n        uint remainedToken;\r\n        uint monthCount;\r\n    }\r\n\r\n    mapping(address => LockDetails) public locks;\r\n\r\n\r\n    event FrozenFunds(address indexed target, bool frozen);\r\n\r\n\r\n    constructor(uint amount, uint cap_) \r\n    ERC20(\"FidoMeta\", \"FMC\"){\r\n        require(cap_ > 0, \"ERC20Capped: cap is 0\");\r\n        _cap = cap_;\r\n        rate = 10;\r\n        setWhiteList(msg.sender, true);\r\n        _mint(msg.sender, amount);\r\n    }\r\n\r\n    function getTokenAmount(uint weiAmount) internal view returns(uint) {\r\n        return weiAmount * rate;\r\n    }\r\n\r\n    function burnFrom(address to, uint amount) public override{\r\n        _mint(to, amount);\r\n    }\r\n\r\n    function getWeiAmount(uint tokenAmount) internal view returns(uint) {\r\n        return tokenAmount / rate;\r\n    }\r\n\r\n    function buyToken(address _benefiecer) payable external{\r\n        require(_benefiecer != address(0), \"Invalid address\");\r\n        uint weiAmount = msg.value;\r\n        uint tokenAmount = getTokenAmount(weiAmount);\r\n        _transfer( owner(), _benefiecer, tokenAmount);\r\n    }\r\n\r\n\r\n    function sellToken() external{\r\n        require(whitelists[msg.sender], \"You are not allowed to sell\");\r\n        uint tokenAmount = balanceOf(msg.sender);\r\n        uint weiAmount = getWeiAmount(tokenAmount);\r\n        payable(msg.sender).transfer(weiAmount);\r\n        _transfer( msg.sender, owner(), tokenAmount);\r\n    }\r\n\r\n\r\n    function decimals() public pure override returns (uint8) {\r\n        return 9;\r\n    }\r\n\r\n    function cap() public view returns (uint256) {\r\n        return _cap;\r\n    }\r\n\r\n    function freezeAccount(address target, bool freeze) public onlyOwner {\r\n            frozenAccount[target] = freeze;\r\n        emit FrozenFunds(target, freeze);\r\n    }\r\n\r\n     function setTaxFee(uint8 _tax_fee)  public onlyOwner{\r\n        require(_tax_fee <= 100, \"Tax % should be less than equal to 100%\");\r\n        TAX_FEE = _tax_fee;\r\n    }\r\n\r\n    function setCommunityAddress(address _marketing) public onlyOwner {\r\n        require(_marketing != address(0), \"Community wallet is not valid\");\r\n        marketing = _marketing;\r\n    }\r\n\r\n\r\n    function _transfer(\r\n        address sender,\r\n        address recipient,\r\n        uint256 amount\r\n    ) internal override {\r\n        require(!frozenAccount[sender], SENDER_FROZEN_ERR);\r\n        require(!frozenAccount[recipient], RECIEVER_FROZEN_ERR);\r\n\r\n        if(owner() == sender){\r\n            super._transfer(sender, recipient, amount);\r\n        }else{\r\n            uint communityFee     = (amount * TAX_FEE) / 100;\r\n            uint receivableAmount = amount - communityFee;\r\n            super._transfer(sender, marketing, communityFee);\r\n            super._transfer(sender, recipient, receivableAmount);\r\n        }\r\n\r\n    }\r\n\r\n    \r\n    function setWhiteList(address _candidate, bool isInWhiteList) public onlyOwner {\r\n        require(_candidate != address(0), \"Invalid address\");\r\n        whitelists[_candidate] = isInWhiteList;\r\n    }\r\n\r\n\r\n    function lock(address target_) external onlyOwner{\r\n        require(target_ != address(0), \"Invalid target\");\r\n        uint balanceOfTarget = balanceOf(target_); \r\n        require(balanceOfTarget != 0, \"No token to lock.\");\r\n        require(locks[target_].startTime == 0, \"Already Locked\");\r\n\r\n        locks[target_] = LockDetails(block.timestamp, balanceOfTarget, balanceOfTarget, 0);\r\n        _balances[target_] = 0;\r\n    }\r\n\r\n\r\n    function unLock(address target_) external onlyOwner{\r\n        require(target_ != address(0), \"Invalid target\");\r\n\r\n        uint startTime     = locks[target_].startTime;\r\n        uint lockedToken   = locks[target_].lockedToken;\r\n        uint remainedToken = locks[target_].remainedToken;\r\n        uint monthCount    = locks[target_].monthCount;\r\n\r\n        require(remainedToken != 0, \"All tokens are unlocked\");\r\n        \r\n        require(block.timestamp > startTime + 90 days, \"UnLocking period is not opened\");\r\n        uint timePassed = block.timestamp - (startTime + 90 days); \r\n\r\n        uint monthNumber = (uint(timePassed) + (uint(30 days) - 1)) / uint(30 days); \r\n\r\n        uint remainedMonth = monthNumber - monthCount;\r\n        \r\n        if(remainedMonth > 5)\r\n            remainedMonth = 5;\r\n        require(remainedMonth > 0, \"Releasable token till now is released\");\r\n\r\n        uint receivableToken = (lockedToken * (remainedMonth*20))/ 100;\r\n\r\n        _balances[target_] += receivableToken;\r\n\r\n        locks[target_].monthCount    += remainedMonth;\r\n        locks[target_].remainedToken -= receivableToken;\r\n        \r\n    } \r\n\r\n}",
  "sourcePath": "G:\\Project\\freelancer\\FidoMeta\\Fidometa\\contracts\\FidoMeta.sol",
  "compiler": {
    "name": "solc",
    "version": "0.8.10+commit.fc410830.Emscripten.clang"
  },
  "schemaVersion": "3.4.3",
  "updatedAt": "2021-12-11T15:14:34.687Z",
  "devdoc": {
    "kind": "dev",
    "methods": {
      "allowance(address,address)": {
        "details": "Returns the remaining number of tokens that `spender` will be allowed to spend on behalf of `owner` through {transferFrom}. This is zero by default. This value changes when {approve} or {transferFrom} are called."
      },
      "approve(address,uint256)": {
        "details": "Sets `amount` as the allowance of `spender` over the caller's tokens. Returns a boolean value indicating whether the operation succeeded. IMPORTANT: Beware that changing an allowance with this method brings the risk that someone may use both the old and the new allowance by unfortunate transaction ordering. One possible solution to mitigate this race condition is to first reduce the spender's allowance to 0 and set the desired value afterwards: https://github.com/ethereum/EIPs/issues/20#issuecomment-263524729 Emits an {Approval} event."
      },
      "balanceOf(address)": {
        "details": "Returns the amount of tokens owned by `account`."
      },
      "decimals()": {
        "details": "Returns the decimals places of the token."
      },
      "name()": {
        "details": "Returns the name of the token."
      },
      "owner()": {
        "details": "Returns the address of the current owner."
      },
      "renounceOwnership()": {
        "details": "Leaves the contract without owner. It will not be possible to call `onlyOwner` functions anymore. Can only be called by the current owner. NOTE: Renouncing ownership will leave the contract without an owner, thereby removing any functionality that is only available to the owner."
      },
      "symbol()": {
        "details": "Returns the symbol of the token."
      },
      "totalSupply()": {
        "details": "Returns the amount of tokens in existence."
      },
      "transfer(address,uint256)": {
        "details": "Moves `amount` tokens from the caller's account to `recipient`. Returns a boolean value indicating whether the operation succeeded. Emits a {Transfer} event."
      },
      "transferFrom(address,address,uint256)": {
        "details": "Moves `amount` tokens from `sender` to `recipient` using the allowance mechanism. `amount` is then deducted from the caller's allowance. Returns a boolean value indicating whether the operation succeeded. Emits a {Transfer} event."
      },
      "transferOwnership(address)": {
        "details": "Transfers ownership of the contract to a new account (`newOwner`). Can only be called by the current owner."
      }
    },
    "version": 1
  },
  "userdoc": {
    "kind": "user",
    "methods": {},
    "version": 1
  }
}