{
  "contractName": "PrivateSale",
  "abi": [
    {
      "inputs": [
        {
          "internalType": "address",
          "name": "token_",
          "type": "address"
        },
        {
          "internalType": "uint256",
          "name": "rate_",
          "type": "uint256"
        },
        {
          "internalType": "uint256",
          "name": "pancakeListingTime_",
          "type": "uint256"
        }
      ],
      "stateMutability": "nonpayable",
      "type": "constructor"
    },
    {
      "anonymous": false,
      "inputs": [
        {
          "indexed": true,
          "internalType": "address",
          "name": "purchaser",
          "type": "address"
        },
        {
          "indexed": true,
          "internalType": "address",
          "name": "beneficiary",
          "type": "address"
        },
        {
          "indexed": false,
          "internalType": "uint256",
          "name": "value",
          "type": "uint256"
        },
        {
          "indexed": false,
          "internalType": "uint256",
          "name": "amount",
          "type": "uint256"
        }
      ],
      "name": "TokenPurchase",
      "type": "event"
    },
    {
      "inputs": [
        {
          "internalType": "address",
          "name": "_beneficiary",
          "type": "address"
        }
      ],
      "name": "buyToken",
      "outputs": [],
      "stateMutability": "payable",
      "type": "function"
    }
  ],
  "bytecode": "0x60a060405234801561001057600080fd5b506040516106c43803806106c4833981810160405281019061003291906101bf565b6000821161003f57600080fd5b600073ffffffffffffffffffffffffffffffffffffffff168373ffffffffffffffffffffffffffffffffffffffff16141561007957600080fd5b6000811161008657600080fd5b336000806101000a81548173ffffffffffffffffffffffffffffffffffffffff021916908373ffffffffffffffffffffffffffffffffffffffff16021790555082600160006101000a81548173ffffffffffffffffffffffffffffffffffffffff021916908373ffffffffffffffffffffffffffffffffffffffff1602179055506000600281905550816080818152505080600381905550505050610212565b600080fd5b600073ffffffffffffffffffffffffffffffffffffffff82169050919050565b60006101568261012b565b9050919050565b6101668161014b565b811461017157600080fd5b50565b6000815190506101838161015d565b92915050565b6000819050919050565b61019c81610189565b81146101a757600080fd5b50565b6000815190506101b981610193565b92915050565b6000806000606084860312156101d8576101d7610126565b5b60006101e686828701610174565b93505060206101f7868287016101aa565b9250506040610208868287016101aa565b9150509250925092565b60805161049761022d60003960006101e201526104976000f3fe60806040526004361061001e5760003560e01c80637e72fb5214610023575b600080fd5b61003d60048036038101906100389190610276565b61003f565b005b6000349050600061004f826101de565b9050816002600082825461006391906102dc565b92505081905550600160009054906101000a900473ffffffffffffffffffffffffffffffffffffffff1673ffffffffffffffffffffffffffffffffffffffff1663a9059cbb84836040518363ffffffff1660e01b81526004016100c7929190610350565b6020604051808303816000875af11580156100e6573d6000803e3d6000fd5b505050506040513d601f19601f8201168201806040525081019061010a91906103b1565b5060008054906101000a900473ffffffffffffffffffffffffffffffffffffffff1673ffffffffffffffffffffffffffffffffffffffff166108fc839081150290604051600060405180830381858888f19350505050158015610171573d6000803e3d6000fd5b508273ffffffffffffffffffffffffffffffffffffffff163373ffffffffffffffffffffffffffffffffffffffff167f623b3804fa71d67900d064613da8f94b9617215ee90799290593e1745087ad1884846040516101d19291906103de565b60405180910390a3505050565b60007f00000000000000000000000000000000000000000000000000000000000000008261020c9190610407565b9050919050565b600080fd5b600073ffffffffffffffffffffffffffffffffffffffff82169050919050565b600061024382610218565b9050919050565b61025381610238565b811461025e57600080fd5b50565b6000813590506102708161024a565b92915050565b60006020828403121561028c5761028b610213565b5b600061029a84828501610261565b91505092915050565b6000819050919050565b7f4e487b7100000000000000000000000000000000000000000000000000000000600052601160045260246000fd5b60006102e7826102a3565b91506102f2836102a3565b9250827fffffffffffffffffffffffffffffffffffffffffffffffffffffffffffffffff03821115610327576103266102ad565b5b828201905092915050565b61033b81610238565b82525050565b61034a816102a3565b82525050565b60006040820190506103656000830185610332565b6103726020830184610341565b9392505050565b60008115159050919050565b61038e81610379565b811461039957600080fd5b50565b6000815190506103ab81610385565b92915050565b6000602082840312156103c7576103c6610213565b5b60006103d58482850161039c565b91505092915050565b60006040820190506103f36000830185610341565b6104006020830184610341565b9392505050565b6000610412826102a3565b915061041d836102a3565b9250817fffffffffffffffffffffffffffffffffffffffffffffffffffffffffffffffff0483118215151615610456576104556102ad565b5b82820290509291505056fea264697066735822122063fdef1cde1a4e1194d2c1b2f5e05d42c42b27afac7b2df6c24d79b71579c70d64736f6c634300080a0033",
  "immutableReferences": {
    "2586": [
      {
        "length": 32,
        "start": 482
      }
    ]
  },
  "source": "pragma solidity ^0.8.10;\r\n\r\nimport \"./interface/IFidoMeta.sol\";\r\n\r\n\r\ncontract PrivateSale  {\r\n    uint private immutable rate;\r\n    address payable owner;\r\n    IFidoMeta token;\r\n    uint weiRaised;\r\n    uint pancakeListingTime;\r\n\r\n     event TokenPurchase(\r\n        address indexed purchaser,\r\n        address indexed beneficiary,\r\n        uint256 value,\r\n        uint256 amount\r\n    );\r\n\r\n    constructor(\r\n        address token_,\r\n        uint rate_,\r\n        uint256 pancakeListingTime_\r\n    ) \r\n    {\r\n        require(rate_ > 0);\r\n        require(token_ != address(0));\r\n        require(pancakeListingTime_ > 0);\r\n\r\n        owner = payable(msg.sender);\r\n        token = IFidoMeta(token_);\r\n        weiRaised = 0;\r\n        rate = rate_;\r\n        pancakeListingTime = pancakeListingTime_;\r\n    }\r\n\r\n    \r\n\r\n\r\n    function buyToken(address _beneficiary) external payable {\r\n        uint256 weiAmount = msg.value;\r\n          // calculate token amount to be created\r\n        uint256 _tokenAmount = _getTokenAmount(weiAmount);\r\n\r\n        weiRaised += weiAmount;\r\n\r\n        token.transfer(_beneficiary, _tokenAmount);\r\n        owner.transfer(weiAmount);\r\n\r\n        emit TokenPurchase(\r\n            msg.sender,\r\n            _beneficiary,\r\n            weiAmount,\r\n            _tokenAmount\r\n        );\r\n\r\n    }\r\n\r\n    function _getTokenAmount(uint256 _weiAmount)\r\n    internal view returns (uint256)\r\n    {\r\n        return _weiAmount*rate;\r\n    }\r\n}",
  "sourcePath": "G:\\Project\\freelancer\\FidoMeta\\Fidometa\\contracts\\PrivateSale.sol",
  "compiler": {
    "name": "solc",
    "version": "0.8.10+commit.fc410830.Emscripten.clang"
  },
  "schemaVersion": "3.4.3",
  "updatedAt": "2021-12-11T15:14:34.782Z",
  "devdoc": {
    "kind": "dev",
    "methods": {},
    "version": 1
  },
  "userdoc": {
    "kind": "user",
    "methods": {},
    "version": 1
  }
}