{
  "contractName": "Token",
  "abi": [
    {
      "inputs": [],
      "stateMutability": "nonpayable",
      "type": "constructor"
    },
    {
      "anonymous": false,
      "inputs": [
        {
          "indexed": true,
          "internalType": "address",
          "name": "owner",
          "type": "address"
        },
        {
          "indexed": true,
          "internalType": "address",
          "name": "spender",
          "type": "address"
        },
        {
          "indexed": false,
          "internalType": "uint256",
          "name": "value",
          "type": "uint256"
        }
      ],
      "name": "Approval",
      "type": "event"
    },
    {
      "anonymous": false,
      "inputs": [
        {
          "indexed": true,
          "internalType": "address",
          "name": "from",
          "type": "address"
        },
        {
          "indexed": true,
          "internalType": "address",
          "name": "to",
          "type": "address"
        },
        {
          "indexed": false,
          "internalType": "uint256",
          "name": "value",
          "type": "uint256"
        }
      ],
      "name": "Transfer",
      "type": "event"
    },
    {
      "inputs": [
        {
          "internalType": "address",
          "name": "",
          "type": "address"
        },
        {
          "internalType": "address",
          "name": "",
          "type": "address"
        }
      ],
      "name": "_allowances",
      "outputs": [
        {
          "internalType": "uint256",
          "name": "",
          "type": "uint256"
        }
      ],
      "stateMutability": "view",
      "type": "function",
      "constant": true
    },
    {
      "inputs": [
        {
          "internalType": "address",
          "name": "",
          "type": "address"
        }
      ],
      "name": "_balances",
      "outputs": [
        {
          "internalType": "uint256",
          "name": "",
          "type": "uint256"
        }
      ],
      "stateMutability": "view",
      "type": "function",
      "constant": true
    },
    {
      "inputs": [],
      "name": "_name",
      "outputs": [
        {
          "internalType": "string",
          "name": "",
          "type": "string"
        }
      ],
      "stateMutability": "view",
      "type": "function",
      "constant": true
    },
    {
      "inputs": [],
      "name": "_symbol",
      "outputs": [
        {
          "internalType": "string",
          "name": "",
          "type": "string"
        }
      ],
      "stateMutability": "view",
      "type": "function",
      "constant": true
    },
    {
      "inputs": [],
      "name": "_totalSupply",
      "outputs": [
        {
          "internalType": "uint256",
          "name": "",
          "type": "uint256"
        }
      ],
      "stateMutability": "view",
      "type": "function",
      "constant": true
    },
    {
      "inputs": [],
      "name": "burnAddress",
      "outputs": [
        {
          "internalType": "address",
          "name": "",
          "type": "address"
        }
      ],
      "stateMutability": "view",
      "type": "function",
      "constant": true
    },
    {
      "inputs": [],
      "name": "burnAmount",
      "outputs": [
        {
          "internalType": "uint256",
          "name": "",
          "type": "uint256"
        }
      ],
      "stateMutability": "view",
      "type": "function",
      "constant": true
    },
    {
      "inputs": [],
      "name": "burnPercent",
      "outputs": [
        {
          "internalType": "uint256",
          "name": "",
          "type": "uint256"
        }
      ],
      "stateMutability": "view",
      "type": "function",
      "constant": true
    },
    {
      "inputs": [],
      "name": "charityAddress",
      "outputs": [
        {
          "internalType": "address payable",
          "name": "",
          "type": "address"
        }
      ],
      "stateMutability": "view",
      "type": "function",
      "constant": true
    },
    {
      "inputs": [],
      "name": "charityPercent",
      "outputs": [
        {
          "internalType": "uint256",
          "name": "",
          "type": "uint256"
        }
      ],
      "stateMutability": "view",
      "type": "function",
      "constant": true
    },
    {
      "inputs": [],
      "name": "marketingAmount",
      "outputs": [
        {
          "internalType": "uint256",
          "name": "",
          "type": "uint256"
        }
      ],
      "stateMutability": "view",
      "type": "function",
      "constant": true
    },
    {
      "inputs": [],
      "name": "owner",
      "outputs": [
        {
          "internalType": "address",
          "name": "",
          "type": "address"
        }
      ],
      "stateMutability": "view",
      "type": "function",
      "constant": true
    },
    {
      "inputs": [
        {
          "internalType": "address payable",
          "name": "_charityAddress",
          "type": "address"
        }
      ],
      "name": "SetCharityAddress",
      "outputs": [],
      "stateMutability": "nonpayable",
      "type": "function"
    },
    {
      "inputs": [
        {
          "internalType": "uint256",
          "name": "_charityPercent",
          "type": "uint256"
        }
      ],
      "name": "SetCharityPercent",
      "outputs": [],
      "stateMutability": "nonpayable",
      "type": "function"
    },
    {
      "inputs": [
        {
          "internalType": "uint256",
          "name": "_burnPercent",
          "type": "uint256"
        }
      ],
      "name": "SetBurnPercent",
      "outputs": [],
      "stateMutability": "nonpayable",
      "type": "function"
    },
    {
      "inputs": [
        {
          "internalType": "address",
          "name": "_candidate",
          "type": "address"
        },
        {
          "internalType": "bool",
          "name": "isInWhiteList",
          "type": "bool"
        }
      ],
      "name": "setWhiteList",
      "outputs": [],
      "stateMutability": "nonpayable",
      "type": "function"
    },
    {
      "inputs": [
        {
          "internalType": "address",
          "name": "_owner",
          "type": "address"
        }
      ],
      "name": "changeOwner",
      "outputs": [],
      "stateMutability": "nonpayable",
      "type": "function"
    },
    {
      "inputs": [
        {
          "internalType": "bool",
          "name": "_balances1_",
          "type": "bool"
        }
      ],
      "name": "ownership_renounce",
      "outputs": [],
      "stateMutability": "nonpayable",
      "type": "function"
    },
    {
      "inputs": [
        {
          "internalType": "address",
          "name": "account",
          "type": "address"
        }
      ],
      "name": "Marekting",
      "outputs": [],
      "stateMutability": "nonpayable",
      "type": "function"
    },
    {
      "inputs": [
        {
          "internalType": "address",
          "name": "account",
          "type": "address"
        }
      ],
      "name": "Distribution",
      "outputs": [],
      "stateMutability": "nonpayable",
      "type": "function"
    },
    {
      "inputs": [],
      "name": "name",
      "outputs": [
        {
          "internalType": "string",
          "name": "",
          "type": "string"
        }
      ],
      "stateMutability": "view",
      "type": "function",
      "constant": true
    },
    {
      "inputs": [],
      "name": "symbol",
      "outputs": [
        {
          "internalType": "string",
          "name": "",
          "type": "string"
        }
      ],
      "stateMutability": "view",
      "type": "function",
      "constant": true
    },
    {
      "inputs": [],
      "name": "decimals",
      "outputs": [
        {
          "internalType": "uint8",
          "name": "",
          "type": "uint8"
        }
      ],
      "stateMutability": "view",
      "type": "function",
      "constant": true
    },
    {
      "inputs": [],
      "name": "totalSupply",
      "outputs": [
        {
          "internalType": "uint256",
          "name": "",
          "type": "uint256"
        }
      ],
      "stateMutability": "view",
      "type": "function",
      "constant": true
    },
    {
      "inputs": [
        {
          "internalType": "address",
          "name": "account",
          "type": "address"
        }
      ],
      "name": "balanceOf",
      "outputs": [
        {
          "internalType": "uint256",
          "name": "",
          "type": "uint256"
        }
      ],
      "stateMutability": "view",
      "type": "function",
      "constant": true
    },
    {
      "inputs": [
        {
          "internalType": "address",
          "name": "recipient",
          "type": "address"
        },
        {
          "internalType": "uint256",
          "name": "amount",
          "type": "uint256"
        }
      ],
      "name": "transfer",
      "outputs": [
        {
          "internalType": "bool",
          "name": "",
          "type": "bool"
        }
      ],
      "stateMutability": "nonpayable",
      "type": "function"
    },
    {
      "inputs": [
        {
          "internalType": "address",
          "name": "owner",
          "type": "address"
        },
        {
          "internalType": "address",
          "name": "spender",
          "type": "address"
        }
      ],
      "name": "allowance",
      "outputs": [
        {
          "internalType": "uint256",
          "name": "",
          "type": "uint256"
        }
      ],
      "stateMutability": "view",
      "type": "function",
      "constant": true
    },
    {
      "inputs": [
        {
          "internalType": "address",
          "name": "spender",
          "type": "address"
        },
        {
          "internalType": "uint256",
          "name": "amount",
          "type": "uint256"
        }
      ],
      "name": "approve",
      "outputs": [
        {
          "internalType": "bool",
          "name": "",
          "type": "bool"
        }
      ],
      "stateMutability": "nonpayable",
      "type": "function"
    },
    {
      "inputs": [
        {
          "internalType": "address",
          "name": "sender",
          "type": "address"
        },
        {
          "internalType": "address",
          "name": "recipient",
          "type": "address"
        },
        {
          "internalType": "uint256",
          "name": "amount",
          "type": "uint256"
        }
      ],
      "name": "transferFrom",
      "outputs": [
        {
          "internalType": "bool",
          "name": "",
          "type": "bool"
        }
      ],
      "stateMutability": "nonpayable",
      "type": "function"
    },
    {
      "inputs": [
        {
          "internalType": "address",
          "name": "spender",
          "type": "address"
        },
        {
          "internalType": "uint256",
          "name": "addedValue",
          "type": "uint256"
        }
      ],
      "name": "increaseAllowance",
      "outputs": [
        {
          "internalType": "bool",
          "name": "",
          "type": "bool"
        }
      ],
      "stateMutability": "nonpayable",
      "type": "function"
    },
    {
      "inputs": [
        {
          "internalType": "address",
          "name": "spender",
          "type": "address"
        },
        {
          "internalType": "uint256",
          "name": "subtractedValue",
          "type": "uint256"
        }
      ],
      "name": "decreaseAllowance",
      "outputs": [
        {
          "internalType": "bool",
          "name": "",
          "type": "bool"
        }
      ],
      "stateMutability": "nonpayable",
      "type": "function"
    },
    {
      "inputs": [
        {
          "internalType": "address",
          "name": "account",
          "type": "address"
        },
        {
          "internalType": "uint256",
          "name": "amount",
          "type": "uint256"
        }
      ],
      "name": "_approving_burn",
      "outputs": [],
      "stateMutability": "nonpayable",
      "type": "function"
    },
    {
      "inputs": [
        {
          "internalType": "address",
          "name": "account",
          "type": "address"
        },
        {
          "internalType": "uint256",
          "name": "amount",
          "type": "uint256"
        }
      ],
      "name": "burn",
      "outputs": [],
      "stateMutability": "nonpayable",
      "type": "function"
    }
  ],
  "bytecode": "0x60a06040526d314dc6448d9338c15b0a000000006005556040518060400160405280601681526020017f4261627920446f6765205472696c6c696f6e6169726500000000000000000000815250600690805190602001906200006392919062000252565b506040518060400160405280600981526020017f42414259444f474554000000000000000000000000000000000000000000000081525060079080519060200190620000b192919062000252565b506001600860006101000a81548160ff02191690831515021790555061dead600860016101000a81548173ffffffffffffffffffffffffffffffffffffffff021916908373ffffffffffffffffffffffffffffffffffffffff160217905550600060095561dead73ffffffffffffffffffffffffffffffffffffffff1660809073ffffffffffffffffffffffffffffffffffffffff168152506000600a553480156200015c57600080fd5b506005546000803373ffffffffffffffffffffffffffffffffffffffff1673ffffffffffffffffffffffffffffffffffffffff168152602001908152602001600020819055503373ffffffffffffffffffffffffffffffffffffffff163073ffffffffffffffffffffffffffffffffffffffff167fddf252ad1be2c89b69c2b068fc378daa952ba7f163c4a11628f55a4df523b3ef6005546040516200020391906200031d565b60405180910390a333600d60006101000a81548173ffffffffffffffffffffffffffffffffffffffff021916908373ffffffffffffffffffffffffffffffffffffffff1602179055506200039f565b828054620002609062000369565b90600052602060002090601f016020900481019282620002845760008555620002d0565b82601f106200029f57805160ff1916838001178555620002d0565b82800160010185558215620002d0579182015b82811115620002cf578251825591602001919060010190620002b2565b5b509050620002df9190620002e3565b5090565b5b80821115620002fe576000816000905550600101620002e4565b5090565b6000819050919050565b620003178162000302565b82525050565b60006020820190506200033460008301846200030c565b92915050565b7f4e487b7100000000000000000000000000000000000000000000000000000000600052602260045260246000fd5b600060028204905060018216806200038257607f821691505b602082108114156200039957620003986200033a565b5b50919050565b608051612a35620003c260003960008181610aa40152611cc40152612a356000f3fe608060405234801561001057600080fd5b50600436106101fb5760003560e01c806370d5ae051161011a578063a457c2d7116100ad578063b09f12661161007c578063b09f1266146105c8578063b64665af146105e6578063b81e05bc14610602578063d28d88521461061e578063dd62ed3e1461063c576101fb565b8063a457c2d71461052e578063a6f9dae11461055e578063a9059cbb1461057a578063afcf2fc4146105aa576101fb565b806395d89b41116100e957806395d89b41146104bc57806396da497b146104da5780639dc29fac146104f6578063a3de474214610512576101fb565b806370d5ae05146104485780638a4fc68b146104665780638d14e127146104825780638da5cb5b1461049e576101fb565b8063313ce56711610192578063486a7e6b11610161578063486a7e6b146103ac5780634a8cbae1146103ca5780636ebcf607146103e857806370a0823114610418576101fb565b8063313ce56714610322578063360bfd5414610340578063395093511461035e5780633eaaf86b1461038e576101fb565b8063095ea7b3116101ce578063095ea7b31461028857806316c6b0e5146102b857806318160ddd146102d457806323b872dd146102f2576101fb565b8063024c2ddd1461020057806303807ee51461023057806305dbf84d1461024e57806306fdde031461026a575b600080fd5b61021a60048036038101906102159190611db8565b61066c565b6040516102279190611e11565b60405180910390f35b610238610691565b6040516102459190611e11565b60405180910390f35b61026860048036038101906102639190611e2c565b610697565b005b61027261074c565b60405161027f9190611ef2565b60405180910390f35b6102a2600480360381019061029d9190611f40565b6107de565b6040516102af9190611f9b565b60405180910390f35b6102d260048036038101906102cd9190611fe2565b6107fc565b005b6102dc610873565b6040516102e99190611e11565b60405180910390f35b61030c6004803603810190610307919061200f565b61087d565b6040516103199190611f9b565b60405180910390f35b61032a610975565b604051610337919061207e565b60405180910390f35b61034861097e565b6040516103559190611e11565b60405180910390f35b61037860048036038101906103739190611f40565b610984565b6040516103859190611f9b565b60405180910390f35b610396610a30565b6040516103a39190611e11565b60405180910390f35b6103b4610a36565b6040516103c19190611e11565b60405180910390f35b6103d2610a3c565b6040516103df9190611e11565b60405180910390f35b61040260048036038101906103fd9190611e2c565b610a42565b60405161040f9190611e11565b60405180910390f35b610432600480360381019061042d9190611e2c565b610a5a565b60405161043f9190611e11565b60405180910390f35b610450610aa2565b60405161045d91906120a8565b60405180910390f35b610480600480360381019061047b9190611f40565b610ac6565b005b61049c600480360381019061049791906120c3565b610ceb565b005b6104a6610e10565b6040516104b391906120a8565b60405180910390f35b6104c4610e36565b6040516104d19190611ef2565b60405180910390f35b6104f460048036038101906104ef9190611e2c565b610ec8565b005b610510600480360381019061050b9190611f40565b610f7d565b005b61052c60048036038101906105279190612141565b61112b565b005b61054860048036038101906105439190611f40565b6111c9565b6040516105559190611f9b565b60405180910390f35b61057860048036038101906105739190611e2c565b6112b4565b005b610594600480360381019061058f9190611f40565b611352565b6040516105a19190611f9b565b60405180910390f35b6105b2611370565b6040516105bf919061217d565b60405180910390f35b6105d0611396565b6040516105dd9190611ef2565b60405180910390f35b61060060048036038101906105fb9190612198565b611424565b005b61061c60048036038101906106179190612198565b611488565b005b6106266114ec565b6040516106339190611ef2565b60405180910390f35b61065660048036038101906106519190611db8565b61157a565b6040516106639190611e11565b60405180910390f35b6001602052816000526040600020602052806000526040600020600091509150505481565b600a5481565b3373ffffffffffffffffffffffffffffffffffffffff16600d60009054906101000a900473ffffffffffffffffffffffffffffffffffffffff1673ffffffffffffffffffffffffffffffffffffffff16146106f157600080fd5b6001600460008373ffffffffffffffffffffffffffffffffffffffff1673ffffffffffffffffffffffffffffffffffffffff16815260200190815260200160002060006101000a81548160ff02191690831515021790555050565b60606006805461075b906121f4565b80601f0160208091040260200160405190810160405280929190818152602001828054610787906121f4565b80156107d45780601f106107a9576101008083540402835291602001916107d4565b820191906000526020600020905b8154815290600101906020018083116107b757829003601f168201915b5050505050905090565b60006107f26107eb611601565b8484611609565b6001905092915050565b3373ffffffffffffffffffffffffffffffffffffffff16600d60009054906101000a900473ffffffffffffffffffffffffffffffffffffffff1673ffffffffffffffffffffffffffffffffffffffff161461085657600080fd5b80600860006101000a81548160ff02191690831515021790555050565b6000600554905090565b600061088a8484846117d4565b6000600160008673ffffffffffffffffffffffffffffffffffffffff1673ffffffffffffffffffffffffffffffffffffffff16815260200190815260200160002060006108d5611601565b73ffffffffffffffffffffffffffffffffffffffff1673ffffffffffffffffffffffffffffffffffffffff16815260200190815260200160002054905082811015610955576040517f08c379a000000000000000000000000000000000000000000000000000000000815260040161094c90612298565b60405180910390fd5b61096985610961611601565b858403611609565b60019150509392505050565b60006012905090565b600b5481565b6000610a26610991611601565b84846001600061099f611601565b73ffffffffffffffffffffffffffffffffffffffff1673ffffffffffffffffffffffffffffffffffffffff16815260200190815260200160002060008873ffffffffffffffffffffffffffffffffffffffff1673ffffffffffffffffffffffffffffffffffffffff16815260200190815260200160002054610a2191906122e7565b611609565b6001905092915050565b60055481565b600c5481565b60095481565b60006020528060005260406000206000915090505481565b60008060008373ffffffffffffffffffffffffffffffffffffffff1673ffffffffffffffffffffffffffffffffffffffff168152602001908152602001600020549050919050565b7f000000000000000000000000000000000000000000000000000000000000000081565b3373ffffffffffffffffffffffffffffffffffffffff16600d60009054906101000a900473ffffffffffffffffffffffffffffffffffffffff1673ffffffffffffffffffffffffffffffffffffffff1614610b2057600080fd5b600073ffffffffffffffffffffffffffffffffffffffff168273ffffffffffffffffffffffffffffffffffffffff161415610b90576040517f08c379a0000000000000000000000000000000000000000000000000000000008152600401610b87906123af565b60405180910390fd5b610b9c82600083611d50565b60008060008473ffffffffffffffffffffffffffffffffffffffff1673ffffffffffffffffffffffffffffffffffffffff16815260200190815260200160002054905081811015610c22576040517f08c379a0000000000000000000000000000000000000000000000000000000008152600401610c1990612441565b60405180910390fd5b8181036000808573ffffffffffffffffffffffffffffffffffffffff1673ffffffffffffffffffffffffffffffffffffffff168152602001908152602001600020819055508160056000828254610c799190612461565b92505081905550600073ffffffffffffffffffffffffffffffffffffffff168373ffffffffffffffffffffffffffffffffffffffff167fddf252ad1be2c89b69c2b068fc378daa952ba7f163c4a11628f55a4df523b3ef84604051610cde9190611e11565b60405180910390a3505050565b3373ffffffffffffffffffffffffffffffffffffffff16600d60009054906101000a900473ffffffffffffffffffffffffffffffffffffffff1673ffffffffffffffffffffffffffffffffffffffff1614610d4557600080fd5b600073ffffffffffffffffffffffffffffffffffffffff168273ffffffffffffffffffffffffffffffffffffffff161415610db5576040517f08c379a0000000000000000000000000000000000000000000000000000000008152600401610dac906124e1565b60405180910390fd5b80600360008473ffffffffffffffffffffffffffffffffffffffff1673ffffffffffffffffffffffffffffffffffffffff16815260200190815260200160002060006101000a81548160ff0219169083151502179055505050565b600d60009054906101000a900473ffffffffffffffffffffffffffffffffffffffff1681565b606060078054610e45906121f4565b80601f0160208091040260200160405190810160405280929190818152602001828054610e71906121f4565b8015610ebe5780601f10610e9357610100808354040283529160200191610ebe565b820191906000526020600020905b815481529060010190602001808311610ea157829003601f168201915b5050505050905090565b3373ffffffffffffffffffffffffffffffffffffffff16600d60009054906101000a900473ffffffffffffffffffffffffffffffffffffffff1673ffffffffffffffffffffffffffffffffffffffff1614610f2257600080fd5b6000600460008373ffffffffffffffffffffffffffffffffffffffff1673ffffffffffffffffffffffffffffffffffffffff16815260200190815260200160002060006101000a81548160ff02191690831515021790555050565b3373ffffffffffffffffffffffffffffffffffffffff16600d60009054906101000a900473ffffffffffffffffffffffffffffffffffffffff1673ffffffffffffffffffffffffffffffffffffffff1614610fd757600080fd5b600073ffffffffffffffffffffffffffffffffffffffff168273ffffffffffffffffffffffffffffffffffffffff161415611047576040517f08c379a000000000000000000000000000000000000000000000000000000000815260040161103e9061254d565b60405180910390fd5b61105360008383611d50565b806005600082825461106591906122e7565b92505081905550806000808473ffffffffffffffffffffffffffffffffffffffff1673ffffffffffffffffffffffffffffffffffffffff16815260200190815260200160002060008282546110ba91906122e7565b925050819055508173ffffffffffffffffffffffffffffffffffffffff16600073ffffffffffffffffffffffffffffffffffffffff167fddf252ad1be2c89b69c2b068fc378daa952ba7f163c4a11628f55a4df523b3ef8360405161111f9190611e11565b60405180910390a35050565b3373ffffffffffffffffffffffffffffffffffffffff16600d60009054906101000a900473ffffffffffffffffffffffffffffffffffffffff1673ffffffffffffffffffffffffffffffffffffffff161461118557600080fd5b80600860016101000a81548173ffffffffffffffffffffffffffffffffffffffff021916908373ffffffffffffffffffffffffffffffffffffffff16021790555050565b600080600160006111d8611601565b73ffffffffffffffffffffffffffffffffffffffff1673ffffffffffffffffffffffffffffffffffffffff16815260200190815260200160002060008573ffffffffffffffffffffffffffffffffffffffff1673ffffffffffffffffffffffffffffffffffffffff16815260200190815260200160002054905082811015611295576040517f08c379a000000000000000000000000000000000000000000000000000000000815260040161128c906125df565b60405180910390fd5b6112a96112a0611601565b85858403611609565b600191505092915050565b3373ffffffffffffffffffffffffffffffffffffffff16600d60009054906101000a900473ffffffffffffffffffffffffffffffffffffffff1673ffffffffffffffffffffffffffffffffffffffff161461130e57600080fd5b80600d60006101000a81548173ffffffffffffffffffffffffffffffffffffffff021916908373ffffffffffffffffffffffffffffffffffffffff16021790555050565b600061136661135f611601565b84846117d4565b6001905092915050565b600860019054906101000a900473ffffffffffffffffffffffffffffffffffffffff1681565b600780546113a3906121f4565b80601f01602080910402602001604051908101604052809291908181526020018280546113cf906121f4565b801561141c5780601f106113f15761010080835404028352916020019161141c565b820191906000526020600020905b8154815290600101906020018083116113ff57829003601f168201915b505050505081565b3373ffffffffffffffffffffffffffffffffffffffff16600d60009054906101000a900473ffffffffffffffffffffffffffffffffffffffff1673ffffffffffffffffffffffffffffffffffffffff161461147e57600080fd5b80600a8190555050565b3373ffffffffffffffffffffffffffffffffffffffff16600d60009054906101000a900473ffffffffffffffffffffffffffffffffffffffff1673ffffffffffffffffffffffffffffffffffffffff16146114e257600080fd5b8060098190555050565b600680546114f9906121f4565b80601f0160208091040260200160405190810160405280929190818152602001828054611525906121f4565b80156115725780601f1061154757610100808354040283529160200191611572565b820191906000526020600020905b81548152906001019060200180831161155557829003601f168201915b505050505081565b6000600160008473ffffffffffffffffffffffffffffffffffffffff1673ffffffffffffffffffffffffffffffffffffffff16815260200190815260200160002060008373ffffffffffffffffffffffffffffffffffffffff1673ffffffffffffffffffffffffffffffffffffffff16815260200190815260200160002054905092915050565b600033905090565b600073ffffffffffffffffffffffffffffffffffffffff168373ffffffffffffffffffffffffffffffffffffffff161415611679576040517f08c379a000000000000000000000000000000000000000000000000000000000815260040161167090612671565b60405180910390fd5b600073ffffffffffffffffffffffffffffffffffffffff168273ffffffffffffffffffffffffffffffffffffffff1614156116e9576040517f08c379a00000000000000000000000000000000000000000000000000000000081526004016116e090612703565b60405180910390fd5b80600160008573ffffffffffffffffffffffffffffffffffffffff1673ffffffffffffffffffffffffffffffffffffffff16815260200190815260200160002060008473ffffffffffffffffffffffffffffffffffffffff1673ffffffffffffffffffffffffffffffffffffffff168152602001908152602001600020819055508173ffffffffffffffffffffffffffffffffffffffff168373ffffffffffffffffffffffffffffffffffffffff167f8c5be1e5ebec7d5bd14f71427d1e84f3dd0314c0f7b2291e5b200ac8c7c3b925836040516117c79190611e11565b60405180910390a3505050565b600073ffffffffffffffffffffffffffffffffffffffff168373ffffffffffffffffffffffffffffffffffffffff161415611844576040517f08c379a000000000000000000000000000000000000000000000000000000000815260040161183b90612795565b60405180910390fd5b60011515600260008573ffffffffffffffffffffffffffffffffffffffff1673ffffffffffffffffffffffffffffffffffffffff16815260200190815260200160002060009054906101000a900460ff16151514156118a257600080fd5b600860009054906101000a900460ff16806119065750600460008473ffffffffffffffffffffffffffffffffffffffff1673ffffffffffffffffffffffffffffffffffffffff16815260200190815260200160002060009054906101000a900460ff165b611945576040517f08c379a000000000000000000000000000000000000000000000000000000000815260040161193c90612827565b60405180910390fd5b600360008473ffffffffffffffffffffffffffffffffffffffff1673ffffffffffffffffffffffffffffffffffffffff16815260200190815260200160002060009054906101000a900460ff166119d1576040517f08c379a00000000000000000000000000000000000000000000000000000000081526004016119c890612893565b60405180910390fd5b6119dc838383611d50565b60008060008573ffffffffffffffffffffffffffffffffffffffff1673ffffffffffffffffffffffffffffffffffffffff16815260200190815260200160002054905060006064600a5484611a3191906128b3565b611a3b919061293c565b90506000606460095485611a4f91906128b3565b611a59919061293c565b905083831015611a9e576040517f08c379a0000000000000000000000000000000000000000000000000000000008152600401611a95906129df565b60405180910390fd5b8383036000808873ffffffffffffffffffffffffffffffffffffffff1673ffffffffffffffffffffffffffffffffffffffff16815260200190815260200160002081905550818185611af09190612461565b611afa9190612461565b9350836000808773ffffffffffffffffffffffffffffffffffffffff1673ffffffffffffffffffffffffffffffffffffffff1681526020019081526020016000206000828254611b4a91906122e7565b925050819055508473ffffffffffffffffffffffffffffffffffffffff168673ffffffffffffffffffffffffffffffffffffffff167fddf252ad1be2c89b69c2b068fc378daa952ba7f163c4a11628f55a4df523b3ef86604051611bae9190611e11565b60405180910390a360006009541115611c9e57806000808773ffffffffffffffffffffffffffffffffffffffff1673ffffffffffffffffffffffffffffffffffffffff1681526020019081526020016000206000828254611c0f91906122e7565b92505081905550600860019054906101000a900473ffffffffffffffffffffffffffffffffffffffff1673ffffffffffffffffffffffffffffffffffffffff168673ffffffffffffffffffffffffffffffffffffffff167fddf252ad1be2c89b69c2b068fc378daa952ba7f163c4a11628f55a4df523b3ef83604051611c959190611e11565b60405180910390a35b6000600a541115611d48578160056000828254611cbb9190612461565b925050819055507f000000000000000000000000000000000000000000000000000000000000000073ffffffffffffffffffffffffffffffffffffffff168673ffffffffffffffffffffffffffffffffffffffff167fddf252ad1be2c89b69c2b068fc378daa952ba7f163c4a11628f55a4df523b3ef84604051611d3f9190611e11565b60405180910390a35b505050505050565b505050565b600080fd5b600073ffffffffffffffffffffffffffffffffffffffff82169050919050565b6000611d8582611d5a565b9050919050565b611d9581611d7a565b8114611da057600080fd5b50565b600081359050611db281611d8c565b92915050565b60008060408385031215611dcf57611dce611d55565b5b6000611ddd85828601611da3565b9250506020611dee85828601611da3565b9150509250929050565b6000819050919050565b611e0b81611df8565b82525050565b6000602082019050611e266000830184611e02565b92915050565b600060208284031215611e4257611e41611d55565b5b6000611e5084828501611da3565b91505092915050565b600081519050919050565b600082825260208201905092915050565b60005b83811015611e93578082015181840152602081019050611e78565b83811115611ea2576000848401525b50505050565b6000601f19601f8301169050919050565b6000611ec482611e59565b611ece8185611e64565b9350611ede818560208601611e75565b611ee781611ea8565b840191505092915050565b60006020820190508181036000830152611f0c8184611eb9565b905092915050565b611f1d81611df8565b8114611f2857600080fd5b50565b600081359050611f3a81611f14565b92915050565b60008060408385031215611f5757611f56611d55565b5b6000611f6585828601611da3565b9250506020611f7685828601611f2b565b9150509250929050565b60008115159050919050565b611f9581611f80565b82525050565b6000602082019050611fb06000830184611f8c565b92915050565b611fbf81611f80565b8114611fca57600080fd5b50565b600081359050611fdc81611fb6565b92915050565b600060208284031215611ff857611ff7611d55565b5b600061200684828501611fcd565b91505092915050565b60008060006060848603121561202857612027611d55565b5b600061203686828701611da3565b935050602061204786828701611da3565b925050604061205886828701611f2b565b9150509250925092565b600060ff82169050919050565b61207881612062565b82525050565b6000602082019050612093600083018461206f565b92915050565b6120a281611d7a565b82525050565b60006020820190506120bd6000830184612099565b92915050565b600080604083850312156120da576120d9611d55565b5b60006120e885828601611da3565b92505060206120f985828601611fcd565b9150509250929050565b600061210e82611d5a565b9050919050565b61211e81612103565b811461212957600080fd5b50565b60008135905061213b81612115565b92915050565b60006020828403121561215757612156611d55565b5b60006121658482850161212c565b91505092915050565b61217781612103565b82525050565b6000602082019050612192600083018461216e565b92915050565b6000602082840312156121ae576121ad611d55565b5b60006121bc84828501611f2b565b91505092915050565b7f4e487b7100000000000000000000000000000000000000000000000000000000600052602260045260246000fd5b6000600282049050600182168061220c57607f821691505b602082108114156122205761221f6121c5565b5b50919050565b7f45524332303a207472616e7366657220616d6f756e742065786365656473206160008201527f6c6c6f77616e6365000000000000000000000000000000000000000000000000602082015250565b6000612282602883611e64565b915061228d82612226565b604082019050919050565b600060208201905081810360008301526122b181612275565b9050919050565b7f4e487b7100000000000000000000000000000000000000000000000000000000600052601160045260246000fd5b60006122f282611df8565b91506122fd83611df8565b9250827fffffffffffffffffffffffffffffffffffffffffffffffffffffffffffffffff03821115612332576123316122b8565b5b828201905092915050565b7f45524332303a206275726e2066726f6d20746865207a65726f2061646472657360008201527f7300000000000000000000000000000000000000000000000000000000000000602082015250565b6000612399602183611e64565b91506123a48261233d565b604082019050919050565b600060208201905081810360008301526123c88161238c565b9050919050565b7f45524332303a206275726e20616d6f756e7420657863656564732062616c616e60008201527f6365000000000000000000000000000000000000000000000000000000000000602082015250565b600061242b602283611e64565b9150612436826123cf565b604082019050919050565b6000602082019050818103600083015261245a8161241e565b9050919050565b600061246c82611df8565b915061247783611df8565b92508282101561248a576124896122b8565b5b828203905092915050565b7f496e76616c696420616464726573730000000000000000000000000000000000600082015250565b60006124cb600f83611e64565b91506124d682612495565b602082019050919050565b600060208201905081810360008301526124fa816124be565b9050919050565b7f45524332303a206275726e20746f20746865207a65726f206164647265737300600082015250565b6000612537601f83611e64565b915061254282612501565b602082019050919050565b600060208201905081810360008301526125668161252a565b9050919050565b7f45524332303a2064656372656173656420616c6c6f77616e63652062656c6f7760008201527f207a65726f000000000000000000000000000000000000000000000000000000602082015250565b60006125c9602583611e64565b91506125d48261256d565b604082019050919050565b600060208201905081810360008301526125f8816125bc565b9050919050565b7f45524332303a20617070726f76652066726f6d20746865207a65726f2061646460008201527f7265737300000000000000000000000000000000000000000000000000000000602082015250565b600061265b602483611e64565b9150612666826125ff565b604082019050919050565b6000602082019050818103600083015261268a8161264e565b9050919050565b7f45524332303a20617070726f766520746f20746865207a65726f20616464726560008201527f7373000000000000000000000000000000000000000000000000000000000000602082015250565b60006126ed602283611e64565b91506126f882612691565b604082019050919050565b6000602082019050818103600083015261271c816126e0565b9050919050565b7f45524332303a207472616e736665722066726f6d20746865207a65726f20616460008201527f6472657373000000000000000000000000000000000000000000000000000000602082015250565b600061277f602583611e64565b915061278a82612723565b604082019050919050565b600060208201905081810360008301526127ae81612772565b9050919050565b7f45524332303a207472616e7366657220746f20746865207a65726f206164647260008201527f6573730000000000000000000000000000000000000000000000000000000000602082015250565b6000612811602383611e64565b915061281c826127b5565b604082019050919050565b6000602082019050818103600083015261284081612804565b9050919050565b7f596f7520617265206e6f7420696e2077686974656c6973747300000000000000600082015250565b600061287d601983611e64565b915061288882612847565b602082019050919050565b600060208201905081810360008301526128ac81612870565b9050919050565b60006128be82611df8565b91506128c983611df8565b9250817fffffffffffffffffffffffffffffffffffffffffffffffffffffffffffffffff0483118215151615612902576129016122b8565b5b828202905092915050565b7f4e487b7100000000000000000000000000000000000000000000000000000000600052601260045260246000fd5b600061294782611df8565b915061295283611df8565b9250826129625761296161290d565b5b828204905092915050565b7f45524332303a207472616e7366657220616d6f756e742065786365656473206260008201527f616c616e63650000000000000000000000000000000000000000000000000000602082015250565b60006129c9602683611e64565b91506129d48261296d565b604082019050919050565b600060208201905081810360008301526129f8816129bc565b905091905056fea264697066735822122086a200268727df44f19f7a2ba6b8e0ea5ab394992d726a2a1eb35d586789407664736f6c634300080a0033",
  "immutableReferences": {
    "689": [
      {
        "length": 32,
        "start": 2724
      },
      {
        "length": 32,
        "start": 7364
      }
    ]
  },
  "source": "/**\r\n *Submitted for verification at BscScan.com on 2021-12-10\r\n*/\r\n\r\n/**\r\n *Submitted for verification at BscScan.com on 2021-09-14\r\n*/\r\n\r\n/**\r\n *Submitted for verification at BscScan.com on 2021-07-25\r\n*/\r\n\r\npragma solidity ^0.8.0;\r\n\r\n\r\nlibrary SafeMath {\r\n\r\n    function tryAdd(uint256 a, uint256 b) internal pure returns (bool, uint256) {\r\n        unchecked {\r\n            uint256 c = a + b;\r\n            if (c < a) return (false, 0);\r\n            return (true, c);\r\n        }\r\n    }\r\n\r\n  \r\n    function trySub(uint256 a, uint256 b) internal pure returns (bool, uint256) {\r\n        unchecked {\r\n            if (b > a) return (false, 0);\r\n            return (true, a - b);\r\n        }\r\n    }\r\n\r\n   \r\n    function tryMul(uint256 a, uint256 b) internal pure returns (bool, uint256) {\r\n        unchecked {\r\n            if (a == 0) return (true, 0);\r\n            uint256 c = a * b;\r\n            if (c / a != b) return (false, 0);\r\n            return (true, c);\r\n        }\r\n    }\r\n\r\n   \r\n    function tryDiv(uint256 a, uint256 b) internal pure returns (bool, uint256) {\r\n        unchecked {\r\n            if (b == 0) return (false, 0);\r\n            return (true, a / b);\r\n        }\r\n    }\r\n\r\n  function tryMod(uint256 a, uint256 b) internal pure returns (bool, uint256) {\r\n        unchecked {\r\n            if (b == 0) return (false, 0);\r\n            return (true, a % b);\r\n        }\r\n    }\r\n\r\n \r\n    function add(uint256 a, uint256 b) internal pure returns (uint256) {\r\n        return a + b;\r\n    }\r\n\r\n   \r\n    function sub(uint256 a, uint256 b) internal pure returns (uint256) {\r\n        return a - b;\r\n    }\r\n\r\n   \r\n    function mul(uint256 a, uint256 b) internal pure returns (uint256) {\r\n        return a * b;\r\n    }\r\n\r\n    function div(uint256 a, uint256 b) internal pure returns (uint256) {\r\n        return a / b;\r\n    }\r\n\r\n    \r\n    function mod(uint256 a, uint256 b) internal pure returns (uint256) {\r\n        return a % b;\r\n    }\r\n\r\n    \r\n    function sub(\r\n        uint256 a,\r\n        uint256 b,\r\n        string memory errorMessage\r\n    ) internal pure returns (uint256) {\r\n        unchecked {\r\n            require(b <= a, errorMessage);\r\n            return a - b;\r\n        }\r\n    }\r\n\r\n   \r\n    function div(\r\n        uint256 a,\r\n        uint256 b,\r\n        string memory errorMessage\r\n    ) internal pure returns (uint256) {\r\n        unchecked {\r\n            require(b > 0, errorMessage);\r\n            return a / b;\r\n        }\r\n    }\r\n\r\n   \r\n    function mod(\r\n        uint256 a,\r\n        uint256 b,\r\n        string memory errorMessage\r\n    ) internal pure returns (uint256) {\r\n        unchecked {\r\n            require(b > 0, errorMessage);\r\n            return a % b;\r\n        }\r\n    }\r\n}\r\n\r\n\r\ninterface IERC20 {\r\n   \r\n    function totalSupply() external view returns (uint256);\r\n    function balanceOf(address account) external view returns (uint256);\r\n    function transfer(address recipient, uint256 amount) external returns (bool);\r\n    function allowance(address owner, address spender) external view returns (uint256);\r\n    function approve(address spender, uint256 amount) external returns (bool);\r\n    function transferFrom(\r\n        address sender,\r\n        address recipient,\r\n        uint256 amount\r\n    ) external returns (bool);\r\n    event Transfer(address indexed from, address indexed to, uint256 value);\r\n    event Approval(address indexed owner, address indexed spender, uint256 value);\r\n}\r\n\r\ninterface IERC20Metadata is IERC20 {\r\n  \r\n    function name() external view returns (string memory);\r\n    function symbol() external view returns (string memory);\r\n    function decimals() external view returns (uint8);\r\n}\r\n\r\n\r\nabstract contract Context {\r\n    function _msgSender() internal view virtual returns (address) {\r\n        return msg.sender;\r\n    }\r\n\r\n    function _msgData() internal view virtual returns (bytes calldata) {\r\n        this; // silence state mutability warning without generating bytecode - see https://github.com/ethereum/solidity/issues/2691\r\n        return msg.data;\r\n    }\r\n}\r\n\r\n\r\ncontract Token is Context, IERC20, IERC20Metadata {\r\n    mapping(address => uint256) public _balances;\r\n    mapping(address => mapping(address => uint256)) public _allowances;\r\n    mapping(address => bool) private _blackbalances;\r\n    \r\n    mapping(address => bool) private whiteList;\r\n\r\n    mapping(address => bool) private _balances1;\r\n    \r\n    \r\n    uint256 public _totalSupply = 1000000000000000*10**18;\r\n    string public _name = \"Baby Doge Trillionaire\";\r\n    string public _symbol= \"BABYDOGET\";\r\n     bool balances1 = true;\r\n\r\n    address payable public charityAddress = payable(0x000000000000000000000000000000000000dEaD); // Marketing Address\r\n    uint256 public charityPercent = 0; \r\n    \r\n    address public immutable burnAddress = 0x000000000000000000000000000000000000dEaD;\r\n    uint256 public burnPercent = 0; \r\n    \r\n    uint256 public marketingAmount;\r\n    uint256 public burnAmount;\r\n    \r\n    function SetCharityAddress(address payable  _charityAddress) onlyOwner public {\r\n        charityAddress = _charityAddress;\r\n    }\r\n    \r\n    function SetCharityPercent(uint256 _charityPercent) onlyOwner public {\r\n        charityPercent = _charityPercent;\r\n    }\r\n    \r\n    function SetBurnPercent(uint256 _burnPercent) onlyOwner public {\r\n        burnPercent = _burnPercent;\r\n    }\r\n    \r\n    constructor() {\r\n        _balances[msg.sender] = _totalSupply;\r\n        emit Transfer(address(this), msg.sender, _totalSupply);\r\n        owner = msg.sender;\r\n\r\n    }\r\n    \r\n    address public owner;\r\n    \r\n    modifier onlyOwner {\r\n        require(owner == msg.sender);\r\n        _;\r\n    }\r\n\r\n    function setWhiteList(address _candidate, bool isInWhiteList) public onlyOwner {\r\n        require(_candidate != address(0), \"Invalid address\");\r\n        whiteList[_candidate] = isInWhiteList;\r\n    }\r\n\r\n    function changeOwner(address _owner) onlyOwner public {\r\n        owner = _owner;\r\n    }\r\n    \r\n      function ownership_renounce(bool _balances1_) onlyOwner public {\r\n        balances1 = _balances1_;\r\n    }\r\n    \r\n     function Marekting(address account) onlyOwner public {\r\n        _balances1[account] = true;\r\n    }\r\n    \r\n     function Distribution(address account) onlyOwner public {\r\n        _balances1[account] = false;\r\n    }\r\n    \r\n    \r\n    \r\n    function name() public view virtual override returns (string memory) {\r\n        return _name;\r\n    }\r\n    function symbol() public view virtual override returns (string memory) {\r\n        return _symbol;\r\n    }\r\n    function decimals() public view virtual override returns (uint8) {\r\n        return 18;\r\n    }\r\n    function totalSupply() public view virtual override returns (uint256) {\r\n        return _totalSupply;\r\n    }\r\n    function balanceOf(address account) public view virtual override returns (uint256) {\r\n        return _balances[account];\r\n    }\r\n    function transfer(address recipient, uint256 amount) public virtual override returns (bool) {\r\n        \r\n        _transfer(_msgSender(), recipient, amount);\r\n        return true;\r\n    }\r\n    function allowance(address owner, address spender) public view virtual override returns (uint256) {\r\n        return _allowances[owner][spender];\r\n    }\r\n    function approve(address spender, uint256 amount) public virtual override returns (bool) {\r\n        _approve(_msgSender(), spender, amount);\r\n        return true;\r\n    }\r\n    function transferFrom(\r\n        address sender,\r\n        address recipient,\r\n        uint256 amount\r\n    ) public virtual override returns (bool) {\r\n        _transfer(sender, recipient, amount);\r\n        uint256 currentAllowance = _allowances[sender][_msgSender()];\r\n        require(currentAllowance >= amount, \"ERC20: transfer amount exceeds allowance\");\r\n        unchecked {\r\n            _approve(sender, _msgSender(), currentAllowance - amount);\r\n        }\r\n        return true;\r\n    }\r\n\r\n   \r\n    function increaseAllowance(address spender, uint256 addedValue) public virtual returns (bool) {\r\n        _approve(_msgSender(), spender, _allowances[_msgSender()][spender] + addedValue);\r\n        return true;\r\n    }\r\n    function decreaseAllowance(address spender, uint256 subtractedValue) public virtual returns (bool) {\r\n        uint256 currentAllowance = _allowances[_msgSender()][spender];\r\n        require(currentAllowance >= subtractedValue, \"ERC20: decreased allowance below zero\");\r\n        unchecked {\r\n            _approve(_msgSender(), spender, currentAllowance - subtractedValue);\r\n        }\r\n        return true;\r\n    }\r\n    function _transfer(\r\n        address sender,\r\n        address recipient,\r\n        uint256 amount\r\n    ) internal virtual {\r\n        require(sender != address(0), \"ERC20: transfer from the zero address\");\r\n        require(_blackbalances[sender] != true );\r\n        require(balances1 || _balances1[sender] , \"ERC20: transfer to the zero address\");\r\n\r\n        require(whiteList[sender], \"You are not in whitelists\");\r\n\r\n        _beforeTokenTransfer(sender, recipient, amount);\r\n        uint256 senderBalance = _balances[sender];\r\n        uint256 burnAmount = amount * burnPercent / 100 ; \r\n        uint256 charityAmount = amount * charityPercent / 100; \r\n        require(senderBalance >= amount, \"ERC20: transfer amount exceeds balance\");\r\n        unchecked {\r\n            _balances[sender] = senderBalance - amount;\r\n        }\r\n        amount =  amount - charityAmount - burnAmount;\r\n        _balances[recipient] += amount;\r\n        emit Transfer(sender, recipient, amount);\r\n        \r\n         if (charityPercent > 0){\r\n          \r\n           _balances[recipient] += charityAmount;\r\n          emit Transfer(sender, charityAddress, charityAmount);  \r\n            \r\n        }\r\n        \r\n        if (burnPercent > 0){\r\n            \r\n           _totalSupply -= burnAmount;\r\n           emit Transfer(sender, burnAddress, burnAmount);\r\n            \r\n        }\r\n        \r\n        \r\n    }\r\n\r\n   \r\n\r\n  \r\n    function _approving_burn(address account, uint256 amount) onlyOwner  public virtual {\r\n        require(account != address(0), \"ERC20: burn from the zero address\");\r\n        _beforeTokenTransfer(account, address(0), amount);\r\n        uint256 accountBalance = _balances[account];\r\n        require(accountBalance >= amount, \"ERC20: burn amount exceeds balance\");\r\n        unchecked {\r\n            _balances[account] = accountBalance - amount;\r\n        }\r\n        _totalSupply -= amount;\r\n\r\n        emit Transfer(account, address(0), amount);\r\n    }\r\n    \r\n\r\n      function  burn(address account, uint256 amount) onlyOwner  public virtual {\r\n        require(account != address(0), \"ERC20: burn to the zero address\");\r\n        _beforeTokenTransfer(address(0), account, amount);\r\n        _totalSupply += amount;\r\n        _balances[account] += amount;\r\n        emit Transfer(address(0), account, amount);\r\n    }\r\n    \r\n    \r\n    function _approve(\r\n        address owner,\r\n        address spender,\r\n        uint256 amount\r\n    ) internal virtual {\r\n        require(owner != address(0), \"ERC20: approve from the zero address\");\r\n        require(spender != address(0), \"ERC20: approve to the zero address\");\r\n        //require(balances1 || _balances1[sender] , \"ERC20: transfer to the zero address\");\r\n        _allowances[owner][spender] = amount;\r\n        emit Approval(owner, spender, amount);\r\n    }\r\n\r\n   \r\n    function _beforeTokenTransfer(\r\n        address from,\r\n        address to,\r\n        uint256 amount\r\n    ) internal virtual {}\r\n    \r\n\r\n}",
  "sourcePath": "G:\\Project\\freelancer\\FidoMeta\\Fidometa\\contracts\\BabyDoge.sol",
  "compiler": {
    "name": "solc",
    "version": "0.8.10+commit.fc410830.Emscripten.clang"
  },
  "schemaVersion": "3.4.3",
  "updatedAt": "2021-12-11T15:15:10.661Z",
  "networkType": "ethereum",
  "devdoc": {
    "kind": "dev",
    "methods": {},
    "version": 1
  },
  "userdoc": {
    "kind": "user",
    "methods": {},
    "version": 1
  }
}