{
  "contractName": "Vesting",
  "abi": [
    {
      "inputs": [],
      "stateMutability": "nonpayable",
      "type": "constructor"
    },
    {
      "anonymous": false,
      "inputs": [
        {
          "indexed": true,
          "internalType": "address",
          "name": "previousOwner",
          "type": "address"
        },
        {
          "indexed": true,
          "internalType": "address",
          "name": "newOwner",
          "type": "address"
        }
      ],
      "name": "OwnershipTransferred",
      "type": "event"
    },
    {
      "inputs": [],
      "name": "fidoMetaToken",
      "outputs": [
        {
          "internalType": "contract IFidoMeta",
          "name": "",
          "type": "address"
        }
      ],
      "stateMutability": "view",
      "type": "function"
    },
    {
      "inputs": [],
      "name": "owner",
      "outputs": [
        {
          "internalType": "address",
          "name": "",
          "type": "address"
        }
      ],
      "stateMutability": "view",
      "type": "function"
    },
    {
      "inputs": [
        {
          "internalType": "address",
          "name": "",
          "type": "address"
        }
      ],
      "name": "recipients",
      "outputs": [
        {
          "internalType": "uint256",
          "name": "totalAmount",
          "type": "uint256"
        },
        {
          "internalType": "uint256",
          "name": "amountWithdrawn",
          "type": "uint256"
        }
      ],
      "stateMutability": "view",
      "type": "function"
    },
    {
      "inputs": [],
      "name": "renounceOwnership",
      "outputs": [],
      "stateMutability": "nonpayable",
      "type": "function"
    },
    {
      "inputs": [
        {
          "internalType": "address",
          "name": "newOwner",
          "type": "address"
        }
      ],
      "name": "transferOwnership",
      "outputs": [],
      "stateMutability": "nonpayable",
      "type": "function"
    }
  ],
  "bytecode": "0x608060405234801561001057600080fd5b5061002d61002261003260201b60201c565b61003a60201b60201c565b6100fe565b600033905090565b60008060009054906101000a900473ffffffffffffffffffffffffffffffffffffffff169050816000806101000a81548173ffffffffffffffffffffffffffffffffffffffff021916908373ffffffffffffffffffffffffffffffffffffffff1602179055508173ffffffffffffffffffffffffffffffffffffffff168173ffffffffffffffffffffffffffffffffffffffff167f8be0079c531659141344cd1fd0a4f28419497f9722a3daafe3b4186f6b6457e060405160405180910390a35050565b6106698061010d6000396000f3fe608060405234801561001057600080fd5b50600436106100575760003560e01c806337831a6e1461005c578063715018a61461007a5780638da5cb5b14610084578063eb820312146100a2578063f2fde38b146100d3575b600080fd5b6100646100ef565b604051610071919061042d565b60405180910390f35b610082610115565b005b61008c61019d565b6040516100999190610469565b60405180910390f35b6100bc60048036038101906100b791906104b5565b6101c6565b6040516100ca9291906104fb565b60405180910390f35b6100ed60048036038101906100e891906104b5565b6101ea565b005b600160009054906101000a900473ffffffffffffffffffffffffffffffffffffffff1681565b61011d6102e2565b73ffffffffffffffffffffffffffffffffffffffff1661013b61019d565b73ffffffffffffffffffffffffffffffffffffffff1614610191576040517f08c379a000000000000000000000000000000000000000000000000000000000815260040161018890610581565b60405180910390fd5b61019b60006102ea565b565b60008060009054906101000a900473ffffffffffffffffffffffffffffffffffffffff16905090565b60026020528060005260406000206000915090508060000154908060010154905082565b6101f26102e2565b73ffffffffffffffffffffffffffffffffffffffff1661021061019d565b73ffffffffffffffffffffffffffffffffffffffff1614610266576040517f08c379a000000000000000000000000000000000000000000000000000000000815260040161025d90610581565b60405180910390fd5b600073ffffffffffffffffffffffffffffffffffffffff168173ffffffffffffffffffffffffffffffffffffffff1614156102d6576040517f08c379a00000000000000000000000000000000000000000000000000000000081526004016102cd90610613565b60405180910390fd5b6102df816102ea565b50565b600033905090565b60008060009054906101000a900473ffffffffffffffffffffffffffffffffffffffff169050816000806101000a81548173ffffffffffffffffffffffffffffffffffffffff021916908373ffffffffffffffffffffffffffffffffffffffff1602179055508173ffffffffffffffffffffffffffffffffffffffff168173ffffffffffffffffffffffffffffffffffffffff167f8be0079c531659141344cd1fd0a4f28419497f9722a3daafe3b4186f6b6457e060405160405180910390a35050565b600073ffffffffffffffffffffffffffffffffffffffff82169050919050565b6000819050919050565b60006103f36103ee6103e9846103ae565b6103ce565b6103ae565b9050919050565b6000610405826103d8565b9050919050565b6000610417826103fa565b9050919050565b6104278161040c565b82525050565b6000602082019050610442600083018461041e565b92915050565b6000610453826103ae565b9050919050565b61046381610448565b82525050565b600060208201905061047e600083018461045a565b92915050565b600080fd5b61049281610448565b811461049d57600080fd5b50565b6000813590506104af81610489565b92915050565b6000602082840312156104cb576104ca610484565b5b60006104d9848285016104a0565b91505092915050565b6000819050919050565b6104f5816104e2565b82525050565b600060408201905061051060008301856104ec565b61051d60208301846104ec565b9392505050565b600082825260208201905092915050565b7f4f776e61626c653a2063616c6c6572206973206e6f7420746865206f776e6572600082015250565b600061056b602083610524565b915061057682610535565b602082019050919050565b6000602082019050818103600083015261059a8161055e565b9050919050565b7f4f776e61626c653a206e6577206f776e657220697320746865207a65726f206160008201527f6464726573730000000000000000000000000000000000000000000000000000602082015250565b60006105fd602683610524565b9150610608826105a1565b604082019050919050565b6000602082019050818103600083015261062c816105f0565b905091905056fea26469706673582212201b7367b301d3ce6e2fa2e2368195ab6f1ad28521d24c0e49f853787887992a6f64736f6c634300080a0033",
  "immutableReferences": {},
  "source": "pragma solidity ^0.8.10;\r\n\r\nimport \"./interface/IFidoMeta.sol\";\r\nimport \"@openzeppelin/contracts/access/Ownable.sol\";\r\n\r\ncontract Vesting is Ownable{\r\n\r\n    struct VestingSchedule {\r\n        uint totalAmount; // total Fidometa token to be vested.\r\n        uint amountWithdrawn; // the amount that has been withdraw.\r\n    }\r\n    \r\n    IFidoMeta public fidoMetaToken;\r\n\r\n    mapping(address => VestingSchedule) public recipients; \r\n\r\n    constructor() Ownable() {\r\n        \r\n    }\r\n\r\n\r\n}",
  "sourcePath": "G:\\Project\\freelancer\\FidoMeta\\Fidometa\\contracts\\Vesting.sol",
  "compiler": {
    "name": "solc",
    "version": "0.8.10+commit.fc410830.Emscripten.clang"
  },
  "schemaVersion": "3.4.3",
  "updatedAt": "2021-12-08T05:52:08.435Z",
  "devdoc": {
    "kind": "dev",
    "methods": {
      "owner()": {
        "details": "Returns the address of the current owner."
      },
      "renounceOwnership()": {
        "details": "Leaves the contract without owner. It will not be possible to call `onlyOwner` functions anymore. Can only be called by the current owner. NOTE: Renouncing ownership will leave the contract without an owner, thereby removing any functionality that is only available to the owner."
      },
      "transferOwnership(address)": {
        "details": "Transfers ownership of the contract to a new account (`newOwner`). Can only be called by the current owner."
      }
    },
    "version": 1
  },
  "userdoc": {
    "kind": "user",
    "methods": {},
    "version": 1
  }
}